{
  "_format": "hh-sol-artifact-1",
  "contractName": "ContentStore",
  "sourceName": "contracts/store/fileStore/ContentStore.sol",
  "abi": [
    {
      "inputs": [
        {
          "internalType": "bytes32",
          "name": "checksum",
          "type": "bytes32"
        }
      ],
      "name": "ChecksumExists",
      "type": "error"
    },
    {
      "inputs": [
        {
          "internalType": "bytes32",
          "name": "checksum",
          "type": "bytes32"
        }
      ],
      "name": "ChecksumNotFound",
      "type": "error"
    },
    {
      "inputs": [
        {
          "internalType": "uint256",
          "name": "_size",
          "type": "uint256"
        },
        {
          "internalType": "uint256",
          "name": "_start",
          "type": "uint256"
        },
        {
          "internalType": "uint256",
          "name": "_end",
          "type": "uint256"
        }
      ],
      "name": "InvalidCodeAtRange",
      "type": "error"
    },
    {
      "inputs": [],
      "name": "WriteError",
      "type": "error"
    },
    {
      "anonymous": false,
      "inputs": [
        {
          "indexed": true,
          "internalType": "bytes32",
          "name": "checksum",
          "type": "bytes32"
        },
        {
          "indexed": false,
          "internalType": "uint256",
          "name": "contentSize",
          "type": "uint256"
        }
      ],
      "name": "NewChecksum",
      "type": "event"
    },
    {
      "inputs": [
        {
          "internalType": "bytes",
          "name": "content",
          "type": "bytes"
        }
      ],
      "name": "addContent",
      "outputs": [
        {
          "internalType": "bytes32",
          "name": "checksum",
          "type": "bytes32"
        },
        {
          "internalType": "address",
          "name": "pointer",
          "type": "address"
        }
      ],
      "stateMutability": "nonpayable",
      "type": "function"
    },
    {
      "inputs": [
        {
          "internalType": "address",
          "name": "pointer",
          "type": "address"
        }
      ],
      "name": "addPointer",
      "outputs": [
        {
          "internalType": "bytes32",
          "name": "checksum",
          "type": "bytes32"
        }
      ],
      "stateMutability": "nonpayable",
      "type": "function"
    },
    {
      "inputs": [
        {
          "internalType": "bytes32",
          "name": "checksum",
          "type": "bytes32"
        }
      ],
      "name": "checksumExists",
      "outputs": [
        {
          "internalType": "bool",
          "name": "",
          "type": "bool"
        }
      ],
      "stateMutability": "view",
      "type": "function"
    },
    {
      "inputs": [
        {
          "internalType": "bytes32",
          "name": "checksum",
          "type": "bytes32"
        }
      ],
      "name": "contentLength",
      "outputs": [
        {
          "internalType": "uint256",
          "name": "size",
          "type": "uint256"
        }
      ],
      "stateMutability": "view",
      "type": "function"
    },
    {
      "inputs": [
        {
          "internalType": "bytes32",
          "name": "checksum",
          "type": "bytes32"
        }
      ],
      "name": "getPointer",
      "outputs": [
        {
          "internalType": "address",
          "name": "pointer",
          "type": "address"
        }
      ],
      "stateMutability": "view",
      "type": "function"
    },
    {
      "inputs": [
        {
          "internalType": "bytes32",
          "name": "",
          "type": "bytes32"
        }
      ],
      "name": "pointers",
      "outputs": [
        {
          "internalType": "address",
          "name": "",
          "type": "address"
        }
      ],
      "stateMutability": "view",
      "type": "function"
    }
  ],
  "bytecode": "0x608060405234801561001057600080fd5b5061075e806100206000396000f3fe608060405234801561001057600080fd5b50600436106100725760003560e01c80633a77c6c9116100505780633a77c6c91461010e5780634641dce614610121578063f97406f71461013457600080fd5b8063093e9839146100775780631bf226ac146100ac57806331654b09146100ed575b600080fd5b61008a61008536600461055c565b61016f565b604080519283526001600160a01b039091166020830152015b60405180910390f35b6100d56100ba36600461060d565b6000602081905290815260409020546001600160a01b031681565b6040516001600160a01b0390911681526020016100a3565b6101006100fb36600461060d565b610235565b6040519081526020016100a3565b61010061011c366004610626565b61029a565b6100d561012f36600461060d565b61034a565b61015f61014236600461060d565b6000908152602081905260409020546001600160a01b0316151590565b60405190151581526020016100a3565b805160208083019190912060008181529182905260408220549091906001600160a01b0316156101ba575060008181526020819052604090205490926001600160a01b039091169150565b6101c38361039e565b60008381526020818152604091829020805473ffffffffffffffffffffffffffffffffffffffff19166001600160a01b0385161790558551915191825291925083917fa1011c3aaafa54b70d8ca12f3b9257ca9a4fe1f6a02196819ea1dcaee1932ca0910160405180910390a2915091565b6000818152602081905260408120546001600160a01b0316610272576040516303001a1960e41b8152600481018390526024015b60405180910390fd5b600082815260208190526040902054610293906001600160a01b031661041c565b5192915050565b6000806102a68361041c565b80516020808301919091206000818152918290526040909120549093509091506001600160a01b0316156102da5750919050565b60008281526020818152604091829020805473ffffffffffffffffffffffffffffffffffffffff19166001600160a01b0387161790558251915191825283917fa1011c3aaafa54b70d8ca12f3b9257ca9a4fe1f6a02196819ea1dcaee1932ca0910160405180910390a250919050565b6000818152602081905260408120546001600160a01b0316610382576040516303001a1960e41b815260048101839052602401610269565b506000908152602081905260409020546001600160a01b031690565b6000806103c9836040516020016103b5919061068a565b604051602081830303815290604052610432565b90508051602082016000f091506001600160a01b038216610416576040517f08d4abb600000000000000000000000000000000000000000000000000000000815260040160405180910390fd5b50919050565b606061042c82600160001961045e565b92915050565b606081518260405160200161044892919061069d565b6040516020818303038152906040529050919050565b6060833b6000819003610481575050604080516020810190915260008152610526565b8084111561049f575050604080516020810190915260008152610526565b838310156104ea576040517f2c4a89fa000000000000000000000000000000000000000000000000000000008152600481018290526024810185905260448101849052606401610269565b83830384820360008282106104ff5782610501565b815b60408051603f8301601f19168101909152818152955090508087602087018a3c505050505b9392505050565b7f4e487b7100000000000000000000000000000000000000000000000000000000600052604160045260246000fd5b60006020828403121561056e57600080fd5b813567ffffffffffffffff8082111561058657600080fd5b818401915084601f83011261059a57600080fd5b8135818111156105ac576105ac61052d565b604051601f8201601f19908116603f011681019083821181831017156105d4576105d461052d565b816040528281528760208487010111156105ed57600080fd5b826020860160208301376000928101602001929092525095945050505050565b60006020828403121561061f57600080fd5b5035919050565b60006020828403121561063857600080fd5b81356001600160a01b038116811461052657600080fd5b6000815160005b818110156106705760208185018101518683015201610656565b8181111561067f576000828601525b509290920192915050565b600081526000610526600183018461064f565b7f630000000000000000000000000000000000000000000000000000000000000081527fffffffff000000000000000000000000000000000000000000000000000000008360e01b1660018201527f80600e6000396000f3000000000000000000000000000000000000000000000060058201526000610720600e83018461064f565b94935050505056fea2646970667358221220965781df77cfe8605fd7e5b2ae725dc002920d4d0c5aa315a004e94ab1f8fd3a64736f6c634300080f0033",
  "linkReferences": {},
  "deployedLinkReferences": {}
}