{
  "_format": "hh-sol-artifact-1",
  "contractName": "ERC725YFacet",
  "sourceName": "contracts/facets/ERC725YFacet.sol",
  "abi": [
    {
      "anonymous": false,
      "inputs": [
        {
          "indexed": true,
          "internalType": "bytes32",
          "name": "dataKey",
          "type": "bytes32"
        },
        {
          "indexed": false,
          "internalType": "bytes",
          "name": "dataValue",
          "type": "bytes"
        }
      ],
      "name": "DataChanged",
      "type": "event"
    },
    {
      "inputs": [
        {
          "internalType": "bytes32[]",
          "name": "dataKeys",
          "type": "bytes32[]"
        }
      ],
      "name": "getData",
      "outputs": [
        {
          "internalType": "bytes[]",
          "name": "dataValues",
          "type": "bytes[]"
        }
      ],
      "stateMutability": "view",
      "type": "function"
    },
    {
      "inputs": [
        {
          "internalType": "bytes32",
          "name": "dataKey",
          "type": "bytes32"
        }
      ],
      "name": "getData",
      "outputs": [
        {
          "internalType": "bytes",
          "name": "dataValue",
          "type": "bytes"
        }
      ],
      "stateMutability": "view",
      "type": "function"
    },
    {
      "inputs": [
        {
          "internalType": "bytes32[]",
          "name": "dataKeys",
          "type": "bytes32[]"
        },
        {
          "internalType": "bytes[]",
          "name": "dataValues",
          "type": "bytes[]"
        }
      ],
      "name": "setData",
      "outputs": [],
      "stateMutability": "nonpayable",
      "type": "function"
    },
    {
      "inputs": [
        {
          "internalType": "bytes32",
          "name": "dataKey",
          "type": "bytes32"
        },
        {
          "internalType": "bytes",
          "name": "dataValue",
          "type": "bytes"
        }
      ],
      "name": "setData",
      "outputs": [],
      "stateMutability": "nonpayable",
      "type": "function"
    },
    {
      "inputs": [
        {
          "internalType": "bytes4",
          "name": "interfaceId",
          "type": "bytes4"
        }
      ],
      "name": "supportsInterface",
      "outputs": [
        {
          "internalType": "bool",
          "name": "",
          "type": "bool"
        }
      ],
      "stateMutability": "view",
      "type": "function"
    }
  ],
  "bytecode": "0x608060405234801561001057600080fd5b50610b2d806100206000396000f3fe608060405234801561001057600080fd5b50600436106100675760003560e01c80634e3e6e9c116100505780634e3e6e9c146100a957806354f6127f146100c95780637f23690c146100e957600080fd5b806301ffc9a71461006c57806314a6e29314610094575b600080fd5b61007f61007a3660046105dc565b6100fc565b60405190151581526020015b60405180910390f35b6100a76100a236600461076b565b610195565b005b6100bc6100b7366004610840565b6102e6565b60405161008b91906108ca565b6100dc6100d736600461092c565b61039a565b60405161008b9190610945565b6100a76100f7366004610958565b6103a5565b60007fffffffff0000000000000000000000000000000000000000000000000000000082167f714df77c00000000000000000000000000000000000000000000000000000000148061018f57507f01ffc9a7000000000000000000000000000000000000000000000000000000007fffffffff000000000000000000000000000000000000000000000000000000008316145b92915050565b7fad4f1a7cd36a357eed365860a2e047f3b732c8ebdeb5c9c8c666bdc341cef48a6101be610433565b815473ffffffffffffffffffffffffffffffffffffffff9081169116146102195760405162461bcd60e51b815260206004820152600a60248201526937b7363c9037bbb732b960b11b60448201526064015b60405180910390fd5b81518351146102905760405162461bcd60e51b815260206004820152602660248201527f4b657973206c656e677468206e6f7420657175616c20746f2076616c7565732060448201527f6c656e67746800000000000000000000000000000000000000000000000000006064820152608401610210565b60005b83518110156102e0576102d88482815181106102b1576102b161099f565b60200260200101518483815181106102cb576102cb61099f565b60200260200101516104a7565b600101610293565b50505050565b6060815167ffffffffffffffff81111561030257610302610625565b60405190808252806020026020018201604052801561033557816020015b60608152602001906001900390816103205790505b50905060005b8251811015610394576103668382815181106103595761035961099f565b602002602001015161051b565b8282815181106103785761037861099f565b602002602001018190525061038d8160010190565b905061033b565b50919050565b606061018f8261051b565b7fad4f1a7cd36a357eed365860a2e047f3b732c8ebdeb5c9c8c666bdc341cef48a6103ce610433565b815473ffffffffffffffffffffffffffffffffffffffff9081169116146104245760405162461bcd60e51b815260206004820152600a60248201526937b7363c9037bbb732b960b11b6044820152606401610210565b61042e83836104a7565b505050565b60003033036104a257600080368080601f016020809104026020016040519081016040528093929190818152602001838380828437600092019190915250505050368181015173ffffffffffffffffffffffffffffffffffffffff1693509091508261049d573392505b505090565b503390565b60008281527f16dde31308a8b3d6a81ffce4939435f54f416a13a51a6779ba5ca24dc8066729602052604090206104de8282610a37565b50817fece574603820d07bc9b91f2a932baadf4628aabcb8afba49776529c14a6104b28260405161050f9190610945565b60405180910390a25050565b60008181527f16dde31308a8b3d6a81ffce4939435f54f416a13a51a6779ba5ca24dc806672960205260409020805460609190610557906109b5565b80601f0160208091040260200160405190810160405280929190818152602001828054610583906109b5565b80156105d05780601f106105a5576101008083540402835291602001916105d0565b820191906000526020600020905b8154815290600101906020018083116105b357829003601f168201915b50505050509050919050565b6000602082840312156105ee57600080fd5b81357fffffffff000000000000000000000000000000000000000000000000000000008116811461061e57600080fd5b9392505050565b634e487b7160e01b600052604160045260246000fd5b604051601f8201601f1916810167ffffffffffffffff8111828210171561066457610664610625565b604052919050565b600067ffffffffffffffff82111561068657610686610625565b5060051b60200190565b600082601f8301126106a157600080fd5b813560206106b66106b18361066c565b61063b565b82815260059290921b840181019181810190868411156106d557600080fd5b8286015b848110156106f057803583529183019183016106d9565b509695505050505050565b600082601f83011261070c57600080fd5b813567ffffffffffffffff81111561072657610726610625565b610739601f8201601f191660200161063b565b81815284602083860101111561074e57600080fd5b816020850160208301376000918101602001919091529392505050565b6000806040838503121561077e57600080fd5b823567ffffffffffffffff8082111561079657600080fd5b6107a286838701610690565b93506020915081850135818111156107b957600080fd5b8501601f810187136107ca57600080fd5b80356107d86106b18261066c565b81815260059190911b820184019084810190898311156107f757600080fd5b8584015b8381101561082f578035868111156108135760008081fd5b6108218c89838901016106fb565b8452509186019186016107fb565b508096505050505050509250929050565b60006020828403121561085257600080fd5b813567ffffffffffffffff81111561086957600080fd5b61087584828501610690565b949350505050565b6000815180845260005b818110156108a357602081850181015186830182015201610887565b818111156108b5576000602083870101525b50601f01601f19169290920160200192915050565b6000602080830181845280855180835260408601915060408160051b870101925083870160005b8281101561091f57603f1988860301845261090d85835161087d565b945092850192908501906001016108f1565b5092979650505050505050565b60006020828403121561093e57600080fd5b5035919050565b60208152600061061e602083018461087d565b6000806040838503121561096b57600080fd5b82359150602083013567ffffffffffffffff81111561098957600080fd5b610995858286016106fb565b9150509250929050565b634e487b7160e01b600052603260045260246000fd5b600181811c908216806109c957607f821691505b60208210810361039457634e487b7160e01b600052602260045260246000fd5b601f82111561042e57600081815260208120601f850160051c81016020861015610a105750805b601f850160051c820191505b81811015610a2f57828155600101610a1c565b505050505050565b815167ffffffffffffffff811115610a5157610a51610625565b610a6581610a5f84546109b5565b846109e9565b602080601f831160018114610a9a5760008415610a825750858301515b600019600386901b1c1916600185901b178555610a2f565b600085815260208120601f198616915b82811015610ac957888601518255948401946001909101908401610aaa565b5085821015610ae75787850151600019600388901b60f8161c191681555b5050505050600190811b0190555056fea26469706673582212202085721362d22423c7163573c5a2de09b2b909bb8b354b687e0954ef77c1714a64736f6c634300080f0033",
  "linkReferences": {},
  "deployedLinkReferences": {}
}