{
  "_format": "hh-sol-artifact-1",
  "contractName": "DiamondContractLauncherFacet",
  "sourceName": "contracts/facets/DiamondContractLauncherFacet.sol",
  "abi": [
    {
      "inputs": [
        {
          "internalType": "uint256",
          "name": "limit",
          "type": "uint256"
        }
      ],
      "name": "ExceededOffsetLimit",
      "type": "error"
    },
    {
      "anonymous": false,
      "inputs": [
        {
          "indexed": true,
          "internalType": "address",
          "name": "addr",
          "type": "address"
        },
        {
          "indexed": true,
          "internalType": "address",
          "name": "owner",
          "type": "address"
        }
      ],
      "name": "Launch",
      "type": "event"
    },
    {
      "anonymous": false,
      "inputs": [
        {
          "indexed": true,
          "internalType": "address",
          "name": "addr",
          "type": "address"
        },
        {
          "indexed": true,
          "internalType": "address",
          "name": "owner",
          "type": "address"
        }
      ],
      "name": "LaunchRegistry",
      "type": "event"
    },
    {
      "inputs": [],
      "name": "feePayment",
      "outputs": [],
      "stateMutability": "payable",
      "type": "function"
    },
    {
      "inputs": [],
      "name": "getClaimsBps",
      "outputs": [
        {
          "internalType": "uint16",
          "name": "",
          "type": "uint16"
        }
      ],
      "stateMutability": "view",
      "type": "function"
    },
    {
      "inputs": [
        {
          "internalType": "uint256",
          "name": "offset",
          "type": "uint256"
        },
        {
          "internalType": "uint256",
          "name": "limit",
          "type": "uint256"
        },
        {
          "internalType": "bool",
          "name": "asc",
          "type": "bool"
        }
      ],
      "name": "getContracts",
      "outputs": [
        {
          "internalType": "address[]",
          "name": "",
          "type": "address[]"
        },
        {
          "internalType": "uint256",
          "name": "",
          "type": "uint256"
        },
        {
          "internalType": "uint256",
          "name": "",
          "type": "uint256"
        }
      ],
      "stateMutability": "view",
      "type": "function"
    },
    {
      "inputs": [
        {
          "internalType": "address",
          "name": "contractOwner",
          "type": "address"
        },
        {
          "internalType": "uint256",
          "name": "offset",
          "type": "uint256"
        },
        {
          "internalType": "uint256",
          "name": "limit",
          "type": "uint256"
        },
        {
          "internalType": "bool",
          "name": "asc",
          "type": "bool"
        }
      ],
      "name": "getContractsByOwner",
      "outputs": [
        {
          "internalType": "address[]",
          "name": "",
          "type": "address[]"
        },
        {
          "internalType": "uint256",
          "name": "",
          "type": "uint256"
        },
        {
          "internalType": "uint256",
          "name": "",
          "type": "uint256"
        }
      ],
      "stateMutability": "view",
      "type": "function"
    },
    {
      "inputs": [],
      "name": "getFee",
      "outputs": [
        {
          "internalType": "uint256",
          "name": "",
          "type": "uint256"
        }
      ],
      "stateMutability": "view",
      "type": "function"
    },
    {
      "inputs": [],
      "name": "getLauncherGlobalDiamondProxy",
      "outputs": [
        {
          "components": [
            {
              "internalType": "bool",
              "name": "namespace",
              "type": "bool"
            },
            {
              "internalType": "address",
              "name": "diamondAddress",
              "type": "address"
            }
          ],
          "internalType": "struct LibDiamond.GlobalDiamondProxy[]",
          "name": "_proxies",
          "type": "tuple[]"
        }
      ],
      "stateMutability": "view",
      "type": "function"
    },
    {
      "inputs": [],
      "name": "getMaxFee",
      "outputs": [
        {
          "internalType": "uint256",
          "name": "",
          "type": "uint256"
        }
      ],
      "stateMutability": "view",
      "type": "function"
    },
    {
      "inputs": [],
      "name": "getMinFee",
      "outputs": [
        {
          "internalType": "uint256",
          "name": "",
          "type": "uint256"
        }
      ],
      "stateMutability": "view",
      "type": "function"
    },
    {
      "inputs": [
        {
          "internalType": "address",
          "name": "contractOwner",
          "type": "address"
        },
        {
          "internalType": "uint256",
          "name": "offset",
          "type": "uint256"
        },
        {
          "internalType": "uint256",
          "name": "limit",
          "type": "uint256"
        },
        {
          "internalType": "bool",
          "name": "asc",
          "type": "bool"
        }
      ],
      "name": "getRegistriesByOwner",
      "outputs": [
        {
          "internalType": "address[]",
          "name": "",
          "type": "address[]"
        },
        {
          "internalType": "uint256",
          "name": "",
          "type": "uint256"
        },
        {
          "internalType": "uint256",
          "name": "",
          "type": "uint256"
        }
      ],
      "stateMutability": "view",
      "type": "function"
    },
    {
      "inputs": [
        {
          "internalType": "address",
          "name": "owner",
          "type": "address"
        },
        {
          "internalType": "bytes20[]",
          "name": "facetIds",
          "type": "bytes20[]"
        },
        {
          "components": [
            {
              "internalType": "address",
              "name": "facetAddress",
              "type": "address"
            },
            {
              "internalType": "enum IDiamondCut.FacetCutAction",
              "name": "action",
              "type": "uint8"
            },
            {
              "internalType": "bytes4[]",
              "name": "functionSelectors",
              "type": "bytes4[]"
            }
          ],
          "internalType": "struct IDiamondCut.FacetCut[]",
          "name": "facets",
          "type": "tuple[]"
        },
        {
          "components": [
            {
              "internalType": "bool",
              "name": "namespace",
              "type": "bool"
            },
            {
              "internalType": "address",
              "name": "diamondAddress",
              "type": "address"
            }
          ],
          "internalType": "struct LibDiamond.GlobalDiamondProxy[]",
          "name": "proxies",
          "type": "tuple[]"
        },
        {
          "internalType": "bytes",
          "name": "initCallData",
          "type": "bytes"
        }
      ],
      "name": "launch",
      "outputs": [
        {
          "internalType": "address",
          "name": "",
          "type": "address"
        }
      ],
      "stateMutability": "nonpayable",
      "type": "function"
    },
    {
      "inputs": [
        {
          "internalType": "address",
          "name": "owner",
          "type": "address"
        },
        {
          "internalType": "bytes20[]",
          "name": "facetIds",
          "type": "bytes20[]"
        },
        {
          "internalType": "bytes",
          "name": "initCallData",
          "type": "bytes"
        }
      ],
      "name": "launch",
      "outputs": [
        {
          "internalType": "address",
          "name": "",
          "type": "address"
        }
      ],
      "stateMutability": "nonpayable",
      "type": "function"
    },
    {
      "inputs": [
        {
          "internalType": "bytes20[]",
          "name": "facetIds",
          "type": "bytes20[]"
        }
      ],
      "name": "launchRegistry",
      "outputs": [
        {
          "internalType": "address",
          "name": "",
          "type": "address"
        }
      ],
      "stateMutability": "nonpayable",
      "type": "function"
    },
    {
      "inputs": [
        {
          "internalType": "uint16",
          "name": "_claimsBps",
          "type": "uint16"
        }
      ],
      "name": "setClaimsBps",
      "outputs": [],
      "stateMutability": "nonpayable",
      "type": "function"
    },
    {
      "inputs": [
        {
          "internalType": "address",
          "name": "diamondCutAddress",
          "type": "address"
        },
        {
          "internalType": "address",
          "name": "registerDiamondCutAddress",
          "type": "address"
        },
        {
          "internalType": "address",
          "name": "diamondLoupeAddress",
          "type": "address"
        },
        {
          "internalType": "address",
          "name": "diamondInitAddress",
          "type": "address"
        }
      ],
      "name": "setDiamondAddresses",
      "outputs": [],
      "stateMutability": "nonpayable",
      "type": "function"
    },
    {
      "inputs": [
        {
          "components": [
            {
              "internalType": "address",
              "name": "facetAddress",
              "type": "address"
            },
            {
              "internalType": "enum IDiamondCut.FacetCutAction",
              "name": "action",
              "type": "uint8"
            },
            {
              "internalType": "bytes4[]",
              "name": "functionSelectors",
              "type": "bytes4[]"
            }
          ],
          "internalType": "struct IDiamondCut.FacetCut[]",
          "name": "cuts",
          "type": "tuple[]"
        }
      ],
      "name": "setFacetCuts",
      "outputs": [],
      "stateMutability": "nonpayable",
      "type": "function"
    },
    {
      "inputs": [
        {
          "internalType": "uint256",
          "name": "minFee",
          "type": "uint256"
        },
        {
          "internalType": "uint256",
          "name": "maxFee",
          "type": "uint256"
        },
        {
          "internalType": "uint256",
          "name": "multiplier",
          "type": "uint256"
        }
      ],
      "name": "setFee",
      "outputs": [],
      "stateMutability": "nonpayable",
      "type": "function"
    },
    {
      "inputs": [
        {
          "components": [
            {
              "internalType": "bool",
              "name": "namespace",
              "type": "bool"
            },
            {
              "internalType": "address",
              "name": "diamondAddress",
              "type": "address"
            }
          ],
          "internalType": "struct LibDiamond.GlobalDiamondProxy[]",
          "name": "globalDiamondProxy",
          "type": "tuple[]"
        }
      ],
      "name": "setLauncherGlobalDiamondProxy",
      "outputs": [],
      "stateMutability": "nonpayable",
      "type": "function"
    }
  ],
  "bytecode": "0x608060405234801561001057600080fd5b5061293b806100206000396000f3fe60806040526004361061010e5760003560e01c80637775724e116100a5578063c8b7263e11610074578063d2cf6ecb11610059578063d2cf6ecb14610339578063dcc3fa2a14610359578063ddda379b1461037957600080fd5b8063c8b7263e14610304578063ced72f871461032457600080fd5b80637775724e146102585780639282867114610290578063aa5624c1146102c4578063c63645ff146102e457600080fd5b806333c7c026116100e157806333c7c0261461013357806348bc2956146101cb5780635b65b9ab146101fa5780635cf34bcf1461021a57600080fd5b80630a70d4d014610113578063131f0ab314610135578063151b37b2146101605780631dfd80a114610180575b600080fd5b34801561011f57600080fd5b5061013361012e366004611b62565b610399565b005b34801561014157600080fd5b5061014a61044f565b6040516101579190611b8d565b60405180910390f35b34801561016c57600080fd5b5061013361017b366004611bfc565b6105e0565b34801561018c57600080fd5b507f91c48250035df185776e24631fd73d84b55f072c31de87dda7ef59ff0a3a767f54610100900461ffff1660405161ffff9091168152602001610157565b3480156101d757600080fd5b506101eb6101e6366004611c66565b61072c565b60405161015793929190611ca5565b34801561020657600080fd5b50610133610215366004611cfb565b6107ff565b34801561022657600080fd5b507f91c48250035df185776e24631fd73d84b55f072c31de87dda7ef59ff0a3a7680545b604051908152602001610157565b34801561026457600080fd5b50610278610273366004611e98565b6108dd565b6040516001600160a01b039091168152602001610157565b34801561029c57600080fd5b507f91c48250035df185776e24631fd73d84b55f072c31de87dda7ef59ff0a3a76815461024a565b3480156102d057600080fd5b506102786102df366004611f68565b610c77565b3480156102f057600080fd5b506102786102ff366004611faa565b610fa9565b34801561031057600080fd5b5061013361031f366004612076565b6112db565b34801561033057600080fd5b5061024a6114f9565b34801561034557600080fd5b506101eb6103543660046121e8565b61157e565b34801561036557600080fd5b50610133610374366004612221565b611618565b34801561038557600080fd5b506101eb610394366004611c66565b61173e565b7fad4f1a7cd36a357eed365860a2e047f3b732c8ebdeb5c9c8c666bdc341cef48a6103c26117fe565b81546001600160a01b039081169116146104105760405162461bcd60e51b815260206004820152600a60248201526937b7363c9037bbb732b960b11b60448201526064015b60405180910390fd5b507f91c48250035df185776e24631fd73d84b55f072c31de87dda7ef59ff0a3a767f805461ffff929092166101000262ffff0019909216919091179055565b7f91c48250035df185776e24631fd73d84b55f072c31de87dda7ef59ff0a3a767e546060907f91c48250035df185776e24631fd73d84b55f072c31de87dda7ef59ff0a3a76749060008190036104a457505090565b8067ffffffffffffffff8111156104bd576104bd611db8565b60405190808252806020026020018201604052801561050257816020015b60408051808201909152600080825260208201528152602001906001900390816104db5790505b50925060005b818161ffff1610156105da5782600a018161ffff168154811061052d5761052d612257565b600091825260209091200154845160ff90911690859061ffff841690811061055757610557612257565b60209081029190910101519015159052600a8301805461ffff831690811061058157610581612257565b9060005260206000200160000160019054906101000a90046001600160a01b0316848261ffff16815181106105b8576105b8612257565b6020908102919091018101516001600160a01b03909216910152600101610508565b50505090565b7fad4f1a7cd36a357eed365860a2e047f3b732c8ebdeb5c9c8c666bdc341cef48a6106096117fe565b81546001600160a01b039081169116146106525760405162461bcd60e51b815260206004820152600a60248201526937b7363c9037bbb732b960b11b6044820152606401610407565b507f91c48250035df185776e24631fd73d84b55f072c31de87dda7ef59ff0a3a7679805473ffffffffffffffffffffffffffffffffffffffff199081166001600160a01b03968716179091557f91c48250035df185776e24631fd73d84b55f072c31de87dda7ef59ff0a3a767b80548216948616949094179093557f91c48250035df185776e24631fd73d84b55f072c31de87dda7ef59ff0a3a767c80548416928516929092179091557f91c48250035df185776e24631fd73d84b55f072c31de87dda7ef59ff0a3a767d80549092169216919091179055565b6001600160a01b03841660009081527f91c48250035df185776e24631fd73d84b55f072c31de87dda7ef59ff0a3a76756020908152604080832080548251818502810185019093528083526060949384937f91c48250035df185776e24631fd73d84b55f072c31de87dda7ef59ff0a3a7674936107ee9391929091908301828280156107e157602002820191906000526020600020905b81546001600160a01b031681526001909101906020018083116107c3575b505050505088888861185a565b935093509350509450945094915050565b7fad4f1a7cd36a357eed365860a2e047f3b732c8ebdeb5c9c8c666bdc341cef48a6108286117fe565b81546001600160a01b039081169116146108715760405162461bcd60e51b815260206004820152600a60248201526937b7363c9037bbb732b960b11b6044820152606401610407565b507f91c48250035df185776e24631fd73d84b55f072c31de87dda7ef59ff0a3a7680929092557f91c48250035df185776e24631fd73d84b55f072c31de87dda7ef59ff0a3a7681557f91c48250035df185776e24631fd73d84b55f072c31de87dda7ef59ff0a3a768255565b6000807f91c48250035df185776e24631fd73d84b55f072c31de87dda7ef59ff0a3a76746005810154600782015460088301546040516317ea12cb60e31b815230600482018190526001600160a01b0394851660248301529284166044820152921660648301529192506000919063bf509658906084016020604051808303816000875af1158015610973573d6000803e3d6000fd5b505050506040513d601f19601f82011682018060405250810190610997919061226d565b60405163e387127360e01b81529091506001600160a01b0382169063e3871273906109c8908990899060040161228a565b600060405180830381600087803b1580156109e257600080fd5b505af11580156109f6573d6000803e3d6000fd5b50505060098301546040805160048082526024820183526020820180516001600160e01b03166370e39c9560e11b17905291516307e4c70760e21b81526001600160a01b038087169550631f931c1c94610a5a948f948f94929093169291016123bb565b600060405180830381600087803b158015610a7457600080fd5b505af1158015610a88573d6000803e3d6000fd5b505060405163c0cc400160e01b81526001600160a01b038416925063c0cc40019150610aba908d908d906004016124d2565b600060405180830381600087803b158015610ad457600080fd5b505af1158015610ae8573d6000803e3d6000fd5b5060009250610afa9150869050612520565b6001600160e01b03191614610b1557610b1381856119db565b505b60405163f2fde38b60e01b81526001600160a01b038c8116600483015282169063f2fde38b90602401600060405180830381600087803b158015610b5857600080fd5b505af1158015610b6c573d6000803e3d6000fd5b5050505081600001819080600181540180825580915050600190039060005260206000200160009091909190916101000a8154816001600160a01b0302191690836001600160a01b031602179055508160010160008c6001600160a01b03166001600160a01b03168152602001908152602001600020819080600181540180825580915050600190039060005260206000200160009091909190916101000a8154816001600160a01b0302191690836001600160a01b031602179055508a6001600160a01b0316816001600160a01b03167fe4b8baaa1c927a55ac28b7693040a55b0b48044cf0572d1fc3beb0f418054a2060405160405180910390a39a9950505050505050505050565b6000807f91c48250035df185776e24631fd73d84b55f072c31de87dda7ef59ff0a3a76746005810154600782015460088301546040516317ea12cb60e31b815230600482018190526001600160a01b0394851660248301529284166044820152921660648301529192506000919063bf509658906084016020604051808303816000875af1158015610d0d573d6000803e3d6000fd5b505050506040513d601f19601f82011682018060405250810190610d31919061226d565b60405163e387127360e01b81529091506001600160a01b0382169063e387127390610d6390600a860190600401612558565b600060405180830381600087803b158015610d7d57600080fd5b505af1158015610d91573d6000803e3d6000fd5b50505060098301546040805160048082526024820183526020820180516001600160e01b03166370e39c9560e11b17905291516307e4c70760e21b81526001600160a01b038087169550631f931c1c94610df79460038a019491909216929091016125ae565b600060405180830381600087803b158015610e1157600080fd5b505af1158015610e25573d6000803e3d6000fd5b505060405163c0cc400160e01b81526001600160a01b038416925063c0cc40019150610e5790889088906004016124d2565b600060405180830381600087803b158015610e7157600080fd5b505af1158015610e85573d6000803e3d6000fd5b50505050806001600160a01b031663f2fde38b610ea06117fe565b6040516001600160e01b031960e084901b1681526001600160a01b039091166004820152602401600060405180830381600087803b158015610ee157600080fd5b505af1158015610ef5573d6000803e3d6000fd5b50505050816002016000610f076117fe565b6001600160a01b039081168252602080830193909352604090910160009081208054600181018255908252929020909101805473ffffffffffffffffffffffffffffffffffffffff1916918316919091179055610f626117fe565b6001600160a01b0316816001600160a01b03167fe42c690170b74f6f8a5941fb13a59d8905b67e47210963638534cfa2fb75a07e60405160405180910390a3949350505050565b6000807f91c48250035df185776e24631fd73d84b55f072c31de87dda7ef59ff0a3a76746005810154600782015460088301546040516317ea12cb60e31b815230600482018190526001600160a01b0394851660248301529284166044820152921660648301529192506000919063bf509658906084016020604051808303816000875af115801561103f573d6000803e3d6000fd5b505050506040513d601f19601f82011682018060405250810190611063919061226d565b60405163e387127360e01b81529091506001600160a01b0382169063e38712739061109590600a860190600401612558565b600060405180830381600087803b1580156110af57600080fd5b505af11580156110c3573d6000803e3d6000fd5b50505060098301546040805160048082526024820183526020820180516001600160e01b03166370e39c9560e11b17905291516307e4c70760e21b81526001600160a01b038087169550631f931c1c946111299460038a019491909216929091016125ae565b600060405180830381600087803b15801561114357600080fd5b505af1158015611157573d6000803e3d6000fd5b505060405163c0cc400160e01b81526001600160a01b038416925063c0cc4001915061118990899089906004016124d2565b600060405180830381600087803b1580156111a357600080fd5b505af11580156111b7573d6000803e3d6000fd5b50600092506111c99150869050612520565b6001600160e01b031916146111e4576111e281856119db565b505b60405163f2fde38b60e01b81526001600160a01b03888116600483015282169063f2fde38b90602401600060405180830381600087803b15801561122757600080fd5b505af115801561123b573d6000803e3d6000fd5b50508354600181810186556000868152602080822090930180546001600160a01b0380891673ffffffffffffffffffffffffffffffffffffffff1992831681179093558e16808452848a018652604080852080549687018155855295842090940180549091168217905592519194509192507fe4b8baaa1c927a55ac28b7693040a55b0b48044cf0572d1fc3beb0f418054a209190a39695505050505050565b7fad4f1a7cd36a357eed365860a2e047f3b732c8ebdeb5c9c8c666bdc341cef48a6113046117fe565b81546001600160a01b0390811691161461134d5760405162461bcd60e51b815260206004820152600a60248201526937b7363c9037bbb732b960b11b6044820152606401610407565b7f91c48250035df185776e24631fd73d84b55f072c31de87dda7ef59ff0a3a7677547f91c48250035df185776e24631fd73d84b55f072c31de87dda7ef59ff0a3a76749060005b818161ffff1610156113fe57826003018054806113b3576113b361283c565b600082815260208120600260001990930192830201805474ffffffffffffffffffffffffffffffffffffffffff19168155906113f26001830182611a2e565b50509055600101611394565b5050825160005b818161ffff1610156114f25782600301858261ffff168151811061142b5761142b612257565b60209081029190910181015182546001810184556000938452928290208151600294850290910180546001600160a01b0390921673ffffffffffffffffffffffffffffffffffffffff198316811782559383015192949093849274ffffffffffffffffffffffffffffffffffffffffff19161790740100000000000000000000000000000000000000009084908111156114c7576114c76122ee565b0217905550604082015180516114e7916001840191602090910190611a56565b505050600101611405565b5050505050565b7f91c48250035df185776e24631fd73d84b55f072c31de87dda7ef59ff0a3a7681547f91c48250035df185776e24631fd73d84b55f072c31de87dda7ef59ff0a3a7680546000917f91c48250035df185776e24631fd73d84b55f072c31de87dda7ef59ff0a3a76749160029161156e91612852565b6115789190612878565b91505090565b6060600080807f91c48250035df185776e24631fd73d84b55f072c31de87dda7ef59ff0a3a7674805460408051602080840282018101909252828152929350611608929184918301828280156107e1576020028201919060005260206000209081546001600160a01b031681526001909101906020018083116107c357505050505088888861185a565b9350935093505093509350939050565b7fad4f1a7cd36a357eed365860a2e047f3b732c8ebdeb5c9c8c666bdc341cef48a6116416117fe565b81546001600160a01b0390811691161461168a5760405162461bcd60e51b815260206004820152600a60248201526937b7363c9037bbb732b960b11b6044820152606401610407565b7f91c48250035df185776e24631fd73d84b55f072c31de87dda7ef59ff0a3a76746116d67f91c48250035df185776e24631fd73d84b55f072c31de87dda7ef59ff0a3a767e6000611b02565b8260005b818161ffff1610156117365782600a0186868361ffff1681811061170057611700612257565b8354600181018555600094855260209094206040909102929092019291909101905061172c828261289a565b50506001016116da565b505050505050565b6001600160a01b03841660009081527f91c48250035df185776e24631fd73d84b55f072c31de87dda7ef59ff0a3a76766020908152604080832080548251818502810185019093528083526060949384937f91c48250035df185776e24631fd73d84b55f072c31de87dda7ef59ff0a3a7674936107ee9391929091908301828280156107e1576020028201919060005260206000209081546001600160a01b031681526001909101906020018083116107c357505050505088888861185a565b600030330361185457600080368080601f0160208091040260200160405190810160405280939291908181526020018383808284376000920191909152505050503601516001600160a01b031691506118579050565b50335b90565b835160609060009081908082818911156118a3576040517f959ed34500000000000000000000000000000000000000000000000000000000815260048101849052602401610407565b82888a0111156118b35788830397505b60008867ffffffffffffffff8111156118ce576118ce611db8565b6040519080825280602002602001820160405280156118f7578160200160208202803683370190505b50905087156119655760005b8981101561195f578260010192508b818c018151811061192557611925612257565b602002602001015182828151811061193f5761193f612257565b6001600160a01b0390921660209283029190910190910152600101611903565b506119cb565b60005b898110156119c9578260010192508b6001828d880303038151811061198f5761198f612257565b60200260200101518282815181106119a9576119a9612257565b6001600160a01b0390921660209283029190910190910152600101611968565b505b9a90995090975095505050505050565b606081805134156119eb57600080fd5b604051600080836020860160008a5af192503d81523d6000602083013e3d8101602001604052828015611a2057819450611a24565b3d82fd5b5050505092915050565b508054600082556007016008900490600052602060002090810190611a539190611b20565b50565b82805482825590600052602060002090600701600890048101928215611af25791602002820160005b83821115611ac057835183826101000a81548163ffffffff021916908360e01c02179055509260200192600401602081600301049283019260010302611a7f565b8015611af05782816101000a81549063ffffffff0219169055600401602081600301049283019260010302611ac0565b505b50611afe929150611b20565b5090565b5080546000825590600052602060002090810190611a539190611b35565b5b80821115611afe5760008155600101611b21565b5b80821115611afe57805474ffffffffffffffffffffffffffffffffffffffffff19168155600101611b36565b600060208284031215611b7457600080fd5b813561ffff81168114611b8657600080fd5b9392505050565b602080825282518282018190526000919060409081850190868401855b82811015611bda5781518051151585528601516001600160a01b0316868501529284019290850190600101611baa565b5091979650505050505050565b6001600160a01b0381168114611a5357600080fd5b60008060008060808587031215611c1257600080fd5b8435611c1d81611be7565b93506020850135611c2d81611be7565b92506040850135611c3d81611be7565b91506060850135611c4d81611be7565b939692955090935050565b8015158114611a5357600080fd5b60008060008060808587031215611c7c57600080fd5b8435611c8781611be7565b935060208501359250604085013591506060850135611c4d81611c58565b606080825284519082018190526000906020906080840190828801845b82811015611ce75781516001600160a01b031684529284019290840190600101611cc2565b505050908301949094525060400152919050565b600080600060608486031215611d1057600080fd5b505081359360208301359350604090920135919050565b60008083601f840112611d3957600080fd5b50813567ffffffffffffffff811115611d5157600080fd5b6020830191508360208260051b8501011115611d6c57600080fd5b9250929050565b60008083601f840112611d8557600080fd5b50813567ffffffffffffffff811115611d9d57600080fd5b6020830191508360208260061b8501011115611d6c57600080fd5b634e487b7160e01b600052604160045260246000fd5b6040516060810167ffffffffffffffff81118282101715611df157611df1611db8565b60405290565b604051601f8201601f1916810167ffffffffffffffff81118282101715611e2057611e20611db8565b604052919050565b600082601f830112611e3957600080fd5b813567ffffffffffffffff811115611e5357611e53611db8565b611e66601f8201601f1916602001611df7565b818152846020838601011115611e7b57600080fd5b816020850160208301376000918101602001919091529392505050565b60008060008060008060008060a0898b031215611eb457600080fd5b8835611ebf81611be7565b9750602089013567ffffffffffffffff80821115611edc57600080fd5b611ee88c838d01611d27565b909950975060408b0135915080821115611f0157600080fd5b611f0d8c838d01611d27565b909750955060608b0135915080821115611f2657600080fd5b611f328c838d01611d73565b909550935060808b0135915080821115611f4b57600080fd5b50611f588b828c01611e28565b9150509295985092959890939650565b60008060208385031215611f7b57600080fd5b823567ffffffffffffffff811115611f9257600080fd5b611f9e85828601611d27565b90969095509350505050565b60008060008060608587031215611fc057600080fd5b8435611fcb81611be7565b9350602085013567ffffffffffffffff80821115611fe857600080fd5b611ff488838901611d27565b9095509350604087013591508082111561200d57600080fd5b5061201a87828801611e28565b91505092959194509250565b600067ffffffffffffffff82111561204057612040611db8565b5060051b60200190565b80356003811061205957600080fd5b919050565b80356001600160e01b03198116811461205957600080fd5b6000602080838503121561208957600080fd5b823567ffffffffffffffff808211156120a157600080fd5b818501915085601f8301126120b557600080fd5b81356120c86120c382612026565b611df7565b81815260059190911b830184019084810190888311156120e757600080fd5b8585015b838110156121db578035858111156121035760008081fd5b86016060818c03601f190181131561211b5760008081fd5b612123611dce565b8983013561213081611be7565b8152604061213f84820161204a565b828c01529183013591888311156121565760008081fd5b82840193508d603f85011261216d57600092508283fd5b8a840135925061217f6120c384612026565b83815260059390931b84018101928b8101908f85111561219f5760008081fd5b948201945b848610156121c4576121b58661205e565b8252948c0194908c01906121a4565b9183019190915250855250509186019186016120eb565b5098975050505050505050565b6000806000606084860312156121fd57600080fd5b8335925060208401359150604084013561221681611c58565b809150509250925092565b6000806020838503121561223457600080fd5b823567ffffffffffffffff81111561224b57600080fd5b611f9e85828601611d73565b634e487b7160e01b600052603260045260246000fd5b60006020828403121561227f57600080fd5b8151611b8681611be7565b6020808252818101839052600090604080840186845b878110156122e15781356122b381611c58565b15158352818501356122c481611be7565b6001600160a01b03168386015291830191908301906001016122a0565b5090979650505050505050565b634e487b7160e01b600052602160045260246000fd5b6003811061232257634e487b7160e01b600052602160045260246000fd5b9052565b8183526000602080850194508260005b85811015612363576001600160e01b03196123508361205e565b1687529582019590820190600101612336565b509495945050505050565b6000815180845260005b8181101561239457602081850181015186830182015201612378565b818111156123a6576000602083870101525b50601f01601f19169290920160200192915050565b6060808252818101859052600090600560808085019088831b86010189855b8a8110156124a157878303607f190184528135368d9003605e1901811261240057600080fd5b8c01803561240d81611be7565b6001600160a01b03168452602061242582820161204a565b61243182870182612304565b50604080830135601e1984360301811261244a57600080fd5b90920181810192903567ffffffffffffffff81111561246857600080fd5b80891b360384131561247957600080fd5b898288015261248b8a88018286612326565b97830197965050509290920191506001016123da565b50506001600160a01b038816602087015285810360408701526124c4818861236e565b9a9950505050505050505050565b6020808252818101839052600090846040840183805b878110156122e15783356bffffffffffffffffffffffff19811680821461250d578384fd5b84525092840192918401916001016124e8565b6000815160208301516001600160e01b0319808216935060048310156125505780818460040360031b1b83161693505b505050919050565b60006020808301818452808554808352604092508286019150866000528360002060005b82811015611bda57815460ff81161515855260081c6001600160a01b031686850152928401926001918201910161257c565b60608152600060608201855480825260808401915060808160051b8501018760005260208060002060005b8481101561280e57607f198885030186526060840182546001600160a01b038116865261260e85870160ff8360a01c16612304565b506060604086015260018381018054808452600091825260208083209401905b806007840110156126e7578454612651838260e01b6001600160e01b0319169052565b6001600160e01b031960c082901b81168a85015260a082901b81166040850152608082901b8116606085015261269860808501828460601b166001600160e01b0319169052565b6126b360a08501828460401b166001600160e01b0319169052565b6001600160e01b0319828b1b8216811660c086015291161660e083015293830193600892909201916101009091019061262e565b9354938083101561271157612708828660e01b6001600160e01b0319169052565b91830191908701905b808310156127335760c085901b6001600160e01b031916825291830191908701905b808310156127555760a085901b6001600160e01b031916825291830191908701905b8083101561277757608085901b6001600160e01b031916825291830191908701905b8083101561279957606085901b6001600160e01b031916825291830191908701905b808310156127bb57604085901b6001600160e01b031916825291830191908701905b808310156127db5784881b6001600160e01b031916825291830191908701905b808310156127f5576001600160e01b031985168252908701905b50988601989650505060029290920191506001016125d9565b50506001600160a01b038816908601528481036040860152612830818761236e565b98975050505050505050565b634e487b7160e01b600052603160045260246000fd5b6000821982111561287357634e487b7160e01b600052601160045260246000fd5b500190565b60008261289557634e487b7160e01b600052601260045260246000fd5b500490565b81356128a581611c58565b815460ff19811691151560ff16918217835560208401356128c581611be7565b74ffffffffffffffffffffffffffffffffffffffff008160081b168374ffffffffffffffffffffffffffffffffffffffffff19841617178455505050505056fea26469706673582212201ff209f04da7eb5a5d432e244ec47cee24abda3cf8af314fa3cb8a3200131a0864736f6c634300080f0033",
  "linkReferences": {},
  "deployedLinkReferences": {}
}