{
  "_format": "hh-sol-artifact-1",
  "contractName": "OurDelegatableFacet",
  "sourceName": "contracts/facets/OurDelegatableFacet.sol",
  "abi": [
    {
      "inputs": [
        {
          "components": [
            {
              "internalType": "address",
              "name": "enforcer",
              "type": "address"
            },
            {
              "internalType": "bytes",
              "name": "terms",
              "type": "bytes"
            }
          ],
          "internalType": "struct Caveat[]",
          "name": "_input",
          "type": "tuple[]"
        }
      ],
      "name": "GET_CAVEAT_ARRAY_PACKETHASH",
      "outputs": [
        {
          "internalType": "bytes32",
          "name": "",
          "type": "bytes32"
        }
      ],
      "stateMutability": "pure",
      "type": "function"
    },
    {
      "inputs": [
        {
          "components": [
            {
              "internalType": "address",
              "name": "enforcer",
              "type": "address"
            },
            {
              "internalType": "bytes",
              "name": "terms",
              "type": "bytes"
            }
          ],
          "internalType": "struct Caveat",
          "name": "_input",
          "type": "tuple"
        }
      ],
      "name": "GET_CAVEAT_PACKETHASH",
      "outputs": [
        {
          "internalType": "bytes32",
          "name": "",
          "type": "bytes32"
        }
      ],
      "stateMutability": "pure",
      "type": "function"
    },
    {
      "inputs": [
        {
          "components": [
            {
              "internalType": "address",
              "name": "delegate",
              "type": "address"
            },
            {
              "internalType": "bytes32",
              "name": "authority",
              "type": "bytes32"
            },
            {
              "components": [
                {
                  "internalType": "address",
                  "name": "enforcer",
                  "type": "address"
                },
                {
                  "internalType": "bytes",
                  "name": "terms",
                  "type": "bytes"
                }
              ],
              "internalType": "struct Caveat[]",
              "name": "caveats",
              "type": "tuple[]"
            }
          ],
          "internalType": "struct Delegation",
          "name": "_input",
          "type": "tuple"
        }
      ],
      "name": "GET_DELEGATION_PACKETHASH",
      "outputs": [
        {
          "internalType": "bytes32",
          "name": "",
          "type": "bytes32"
        }
      ],
      "stateMutability": "pure",
      "type": "function"
    },
    {
      "inputs": [
        {
          "components": [
            {
              "components": [
                {
                  "components": [
                    {
                      "internalType": "address",
                      "name": "to",
                      "type": "address"
                    },
                    {
                      "internalType": "uint256",
                      "name": "gasLimit",
                      "type": "uint256"
                    },
                    {
                      "internalType": "bytes",
                      "name": "data",
                      "type": "bytes"
                    }
                  ],
                  "internalType": "struct Transaction",
                  "name": "transaction",
                  "type": "tuple"
                },
                {
                  "components": [
                    {
                      "components": [
                        {
                          "internalType": "address",
                          "name": "delegate",
                          "type": "address"
                        },
                        {
                          "internalType": "bytes32",
                          "name": "authority",
                          "type": "bytes32"
                        },
                        {
                          "components": [
                            {
                              "internalType": "address",
                              "name": "enforcer",
                              "type": "address"
                            },
                            {
                              "internalType": "bytes",
                              "name": "terms",
                              "type": "bytes"
                            }
                          ],
                          "internalType": "struct Caveat[]",
                          "name": "caveats",
                          "type": "tuple[]"
                        }
                      ],
                      "internalType": "struct Delegation",
                      "name": "delegation",
                      "type": "tuple"
                    },
                    {
                      "internalType": "bytes",
                      "name": "signature",
                      "type": "bytes"
                    }
                  ],
                  "internalType": "struct SignedDelegation[]",
                  "name": "authority",
                  "type": "tuple[]"
                }
              ],
              "internalType": "struct Invocation[]",
              "name": "batch",
              "type": "tuple[]"
            },
            {
              "components": [
                {
                  "internalType": "uint256",
                  "name": "nonce",
                  "type": "uint256"
                },
                {
                  "internalType": "uint256",
                  "name": "queue",
                  "type": "uint256"
                }
              ],
              "internalType": "struct ReplayProtection",
              "name": "replayProtection",
              "type": "tuple"
            }
          ],
          "internalType": "struct Invocations",
          "name": "_input",
          "type": "tuple"
        }
      ],
      "name": "GET_INVOCATIONS_PACKETHASH",
      "outputs": [
        {
          "internalType": "bytes32",
          "name": "",
          "type": "bytes32"
        }
      ],
      "stateMutability": "pure",
      "type": "function"
    },
    {
      "inputs": [
        {
          "components": [
            {
              "components": [
                {
                  "internalType": "address",
                  "name": "to",
                  "type": "address"
                },
                {
                  "internalType": "uint256",
                  "name": "gasLimit",
                  "type": "uint256"
                },
                {
                  "internalType": "bytes",
                  "name": "data",
                  "type": "bytes"
                }
              ],
              "internalType": "struct Transaction",
              "name": "transaction",
              "type": "tuple"
            },
            {
              "components": [
                {
                  "components": [
                    {
                      "internalType": "address",
                      "name": "delegate",
                      "type": "address"
                    },
                    {
                      "internalType": "bytes32",
                      "name": "authority",
                      "type": "bytes32"
                    },
                    {
                      "components": [
                        {
                          "internalType": "address",
                          "name": "enforcer",
                          "type": "address"
                        },
                        {
                          "internalType": "bytes",
                          "name": "terms",
                          "type": "bytes"
                        }
                      ],
                      "internalType": "struct Caveat[]",
                      "name": "caveats",
                      "type": "tuple[]"
                    }
                  ],
                  "internalType": "struct Delegation",
                  "name": "delegation",
                  "type": "tuple"
                },
                {
                  "internalType": "bytes",
                  "name": "signature",
                  "type": "bytes"
                }
              ],
              "internalType": "struct SignedDelegation[]",
              "name": "authority",
              "type": "tuple[]"
            }
          ],
          "internalType": "struct Invocation[]",
          "name": "_input",
          "type": "tuple[]"
        }
      ],
      "name": "GET_INVOCATION_ARRAY_PACKETHASH",
      "outputs": [
        {
          "internalType": "bytes32",
          "name": "",
          "type": "bytes32"
        }
      ],
      "stateMutability": "pure",
      "type": "function"
    },
    {
      "inputs": [
        {
          "components": [
            {
              "components": [
                {
                  "internalType": "address",
                  "name": "to",
                  "type": "address"
                },
                {
                  "internalType": "uint256",
                  "name": "gasLimit",
                  "type": "uint256"
                },
                {
                  "internalType": "bytes",
                  "name": "data",
                  "type": "bytes"
                }
              ],
              "internalType": "struct Transaction",
              "name": "transaction",
              "type": "tuple"
            },
            {
              "components": [
                {
                  "components": [
                    {
                      "internalType": "address",
                      "name": "delegate",
                      "type": "address"
                    },
                    {
                      "internalType": "bytes32",
                      "name": "authority",
                      "type": "bytes32"
                    },
                    {
                      "components": [
                        {
                          "internalType": "address",
                          "name": "enforcer",
                          "type": "address"
                        },
                        {
                          "internalType": "bytes",
                          "name": "terms",
                          "type": "bytes"
                        }
                      ],
                      "internalType": "struct Caveat[]",
                      "name": "caveats",
                      "type": "tuple[]"
                    }
                  ],
                  "internalType": "struct Delegation",
                  "name": "delegation",
                  "type": "tuple"
                },
                {
                  "internalType": "bytes",
                  "name": "signature",
                  "type": "bytes"
                }
              ],
              "internalType": "struct SignedDelegation[]",
              "name": "authority",
              "type": "tuple[]"
            }
          ],
          "internalType": "struct Invocation",
          "name": "_input",
          "type": "tuple"
        }
      ],
      "name": "GET_INVOCATION_PACKETHASH",
      "outputs": [
        {
          "internalType": "bytes32",
          "name": "",
          "type": "bytes32"
        }
      ],
      "stateMutability": "pure",
      "type": "function"
    },
    {
      "inputs": [
        {
          "components": [
            {
              "internalType": "uint256",
              "name": "nonce",
              "type": "uint256"
            },
            {
              "internalType": "uint256",
              "name": "queue",
              "type": "uint256"
            }
          ],
          "internalType": "struct ReplayProtection",
          "name": "_input",
          "type": "tuple"
        }
      ],
      "name": "GET_REPLAYPROTECTION_PACKETHASH",
      "outputs": [
        {
          "internalType": "bytes32",
          "name": "",
          "type": "bytes32"
        }
      ],
      "stateMutability": "pure",
      "type": "function"
    },
    {
      "inputs": [
        {
          "components": [
            {
              "components": [
                {
                  "internalType": "address",
                  "name": "delegate",
                  "type": "address"
                },
                {
                  "internalType": "bytes32",
                  "name": "authority",
                  "type": "bytes32"
                },
                {
                  "components": [
                    {
                      "internalType": "address",
                      "name": "enforcer",
                      "type": "address"
                    },
                    {
                      "internalType": "bytes",
                      "name": "terms",
                      "type": "bytes"
                    }
                  ],
                  "internalType": "struct Caveat[]",
                  "name": "caveats",
                  "type": "tuple[]"
                }
              ],
              "internalType": "struct Delegation",
              "name": "delegation",
              "type": "tuple"
            },
            {
              "internalType": "bytes",
              "name": "signature",
              "type": "bytes"
            }
          ],
          "internalType": "struct SignedDelegation[]",
          "name": "_input",
          "type": "tuple[]"
        }
      ],
      "name": "GET_SIGNEDDELEGATION_ARRAY_PACKETHASH",
      "outputs": [
        {
          "internalType": "bytes32",
          "name": "",
          "type": "bytes32"
        }
      ],
      "stateMutability": "pure",
      "type": "function"
    },
    {
      "inputs": [
        {
          "components": [
            {
              "components": [
                {
                  "internalType": "address",
                  "name": "delegate",
                  "type": "address"
                },
                {
                  "internalType": "bytes32",
                  "name": "authority",
                  "type": "bytes32"
                },
                {
                  "components": [
                    {
                      "internalType": "address",
                      "name": "enforcer",
                      "type": "address"
                    },
                    {
                      "internalType": "bytes",
                      "name": "terms",
                      "type": "bytes"
                    }
                  ],
                  "internalType": "struct Caveat[]",
                  "name": "caveats",
                  "type": "tuple[]"
                }
              ],
              "internalType": "struct Delegation",
              "name": "delegation",
              "type": "tuple"
            },
            {
              "internalType": "bytes",
              "name": "signature",
              "type": "bytes"
            }
          ],
          "internalType": "struct SignedDelegation",
          "name": "_input",
          "type": "tuple"
        }
      ],
      "name": "GET_SIGNEDDELEGATION_PACKETHASH",
      "outputs": [
        {
          "internalType": "bytes32",
          "name": "",
          "type": "bytes32"
        }
      ],
      "stateMutability": "pure",
      "type": "function"
    },
    {
      "inputs": [
        {
          "components": [
            {
              "internalType": "address",
              "name": "to",
              "type": "address"
            },
            {
              "internalType": "uint256",
              "name": "gasLimit",
              "type": "uint256"
            },
            {
              "internalType": "bytes",
              "name": "data",
              "type": "bytes"
            }
          ],
          "internalType": "struct Transaction",
          "name": "_input",
          "type": "tuple"
        }
      ],
      "name": "GET_TRANSACTION_PACKETHASH",
      "outputs": [
        {
          "internalType": "bytes32",
          "name": "",
          "type": "bytes32"
        }
      ],
      "stateMutability": "pure",
      "type": "function"
    },
    {
      "inputs": [
        {
          "components": [
            {
              "components": [
                {
                  "internalType": "address",
                  "name": "to",
                  "type": "address"
                },
                {
                  "internalType": "uint256",
                  "name": "gasLimit",
                  "type": "uint256"
                },
                {
                  "internalType": "bytes",
                  "name": "data",
                  "type": "bytes"
                }
              ],
              "internalType": "struct Transaction",
              "name": "transaction",
              "type": "tuple"
            },
            {
              "components": [
                {
                  "components": [
                    {
                      "internalType": "address",
                      "name": "delegate",
                      "type": "address"
                    },
                    {
                      "internalType": "bytes32",
                      "name": "authority",
                      "type": "bytes32"
                    },
                    {
                      "components": [
                        {
                          "internalType": "address",
                          "name": "enforcer",
                          "type": "address"
                        },
                        {
                          "internalType": "bytes",
                          "name": "terms",
                          "type": "bytes"
                        }
                      ],
                      "internalType": "struct Caveat[]",
                      "name": "caveats",
                      "type": "tuple[]"
                    }
                  ],
                  "internalType": "struct Delegation",
                  "name": "delegation",
                  "type": "tuple"
                },
                {
                  "internalType": "bytes",
                  "name": "signature",
                  "type": "bytes"
                }
              ],
              "internalType": "struct SignedDelegation[]",
              "name": "authority",
              "type": "tuple[]"
            }
          ],
          "internalType": "struct Invocation[]",
          "name": "batch",
          "type": "tuple[]"
        }
      ],
      "name": "contractInvoke",
      "outputs": [
        {
          "internalType": "bool",
          "name": "",
          "type": "bool"
        }
      ],
      "stateMutability": "nonpayable",
      "type": "function"
    },
    {
      "inputs": [
        {
          "components": [
            {
              "internalType": "address",
              "name": "delegate",
              "type": "address"
            },
            {
              "internalType": "bytes32",
              "name": "authority",
              "type": "bytes32"
            },
            {
              "components": [
                {
                  "internalType": "address",
                  "name": "enforcer",
                  "type": "address"
                },
                {
                  "internalType": "bytes",
                  "name": "terms",
                  "type": "bytes"
                }
              ],
              "internalType": "struct Caveat[]",
              "name": "caveats",
              "type": "tuple[]"
            }
          ],
          "internalType": "struct Delegation",
          "name": "delegation",
          "type": "tuple"
        }
      ],
      "name": "getDelegationTypedDataHash",
      "outputs": [
        {
          "internalType": "bytes32",
          "name": "",
          "type": "bytes32"
        }
      ],
      "stateMutability": "view",
      "type": "function"
    },
    {
      "inputs": [],
      "name": "getEIP712DomainHash",
      "outputs": [
        {
          "internalType": "bytes32",
          "name": "",
          "type": "bytes32"
        }
      ],
      "stateMutability": "view",
      "type": "function"
    },
    {
      "inputs": [
        {
          "internalType": "string",
          "name": "contractName",
          "type": "string"
        },
        {
          "internalType": "string",
          "name": "version",
          "type": "string"
        },
        {
          "internalType": "uint256",
          "name": "chainId",
          "type": "uint256"
        },
        {
          "internalType": "address",
          "name": "verifyingContract",
          "type": "address"
        }
      ],
      "name": "getEIP712DomainHash",
      "outputs": [
        {
          "internalType": "bytes32",
          "name": "",
          "type": "bytes32"
        }
      ],
      "stateMutability": "pure",
      "type": "function"
    },
    {
      "inputs": [
        {
          "components": [
            {
              "components": [
                {
                  "components": [
                    {
                      "internalType": "address",
                      "name": "to",
                      "type": "address"
                    },
                    {
                      "internalType": "uint256",
                      "name": "gasLimit",
                      "type": "uint256"
                    },
                    {
                      "internalType": "bytes",
                      "name": "data",
                      "type": "bytes"
                    }
                  ],
                  "internalType": "struct Transaction",
                  "name": "transaction",
                  "type": "tuple"
                },
                {
                  "components": [
                    {
                      "components": [
                        {
                          "internalType": "address",
                          "name": "delegate",
                          "type": "address"
                        },
                        {
                          "internalType": "bytes32",
                          "name": "authority",
                          "type": "bytes32"
                        },
                        {
                          "components": [
                            {
                              "internalType": "address",
                              "name": "enforcer",
                              "type": "address"
                            },
                            {
                              "internalType": "bytes",
                              "name": "terms",
                              "type": "bytes"
                            }
                          ],
                          "internalType": "struct Caveat[]",
                          "name": "caveats",
                          "type": "tuple[]"
                        }
                      ],
                      "internalType": "struct Delegation",
                      "name": "delegation",
                      "type": "tuple"
                    },
                    {
                      "internalType": "bytes",
                      "name": "signature",
                      "type": "bytes"
                    }
                  ],
                  "internalType": "struct SignedDelegation[]",
                  "name": "authority",
                  "type": "tuple[]"
                }
              ],
              "internalType": "struct Invocation[]",
              "name": "batch",
              "type": "tuple[]"
            },
            {
              "components": [
                {
                  "internalType": "uint256",
                  "name": "nonce",
                  "type": "uint256"
                },
                {
                  "internalType": "uint256",
                  "name": "queue",
                  "type": "uint256"
                }
              ],
              "internalType": "struct ReplayProtection",
              "name": "replayProtection",
              "type": "tuple"
            }
          ],
          "internalType": "struct Invocations",
          "name": "invocations",
          "type": "tuple"
        }
      ],
      "name": "getInvocationsTypedDataHash",
      "outputs": [
        {
          "internalType": "bytes32",
          "name": "",
          "type": "bytes32"
        }
      ],
      "stateMutability": "view",
      "type": "function"
    },
    {
      "inputs": [
        {
          "internalType": "address",
          "name": "intendedSender",
          "type": "address"
        },
        {
          "internalType": "uint256",
          "name": "queue",
          "type": "uint256"
        }
      ],
      "name": "getNonce",
      "outputs": [
        {
          "internalType": "uint256",
          "name": "",
          "type": "uint256"
        }
      ],
      "stateMutability": "view",
      "type": "function"
    },
    {
      "inputs": [
        {
          "components": [
            {
              "components": [
                {
                  "components": [
                    {
                      "components": [
                        {
                          "internalType": "address",
                          "name": "to",
                          "type": "address"
                        },
                        {
                          "internalType": "uint256",
                          "name": "gasLimit",
                          "type": "uint256"
                        },
                        {
                          "internalType": "bytes",
                          "name": "data",
                          "type": "bytes"
                        }
                      ],
                      "internalType": "struct Transaction",
                      "name": "transaction",
                      "type": "tuple"
                    },
                    {
                      "components": [
                        {
                          "components": [
                            {
                              "internalType": "address",
                              "name": "delegate",
                              "type": "address"
                            },
                            {
                              "internalType": "bytes32",
                              "name": "authority",
                              "type": "bytes32"
                            },
                            {
                              "components": [
                                {
                                  "internalType": "address",
                                  "name": "enforcer",
                                  "type": "address"
                                },
                                {
                                  "internalType": "bytes",
                                  "name": "terms",
                                  "type": "bytes"
                                }
                              ],
                              "internalType": "struct Caveat[]",
                              "name": "caveats",
                              "type": "tuple[]"
                            }
                          ],
                          "internalType": "struct Delegation",
                          "name": "delegation",
                          "type": "tuple"
                        },
                        {
                          "internalType": "bytes",
                          "name": "signature",
                          "type": "bytes"
                        }
                      ],
                      "internalType": "struct SignedDelegation[]",
                      "name": "authority",
                      "type": "tuple[]"
                    }
                  ],
                  "internalType": "struct Invocation[]",
                  "name": "batch",
                  "type": "tuple[]"
                },
                {
                  "components": [
                    {
                      "internalType": "uint256",
                      "name": "nonce",
                      "type": "uint256"
                    },
                    {
                      "internalType": "uint256",
                      "name": "queue",
                      "type": "uint256"
                    }
                  ],
                  "internalType": "struct ReplayProtection",
                  "name": "replayProtection",
                  "type": "tuple"
                }
              ],
              "internalType": "struct Invocations",
              "name": "invocations",
              "type": "tuple"
            },
            {
              "internalType": "bytes",
              "name": "signature",
              "type": "bytes"
            }
          ],
          "internalType": "struct SignedInvocation[]",
          "name": "signedInvocations",
          "type": "tuple[]"
        }
      ],
      "name": "invoke",
      "outputs": [
        {
          "internalType": "bool",
          "name": "success",
          "type": "bool"
        }
      ],
      "stateMutability": "nonpayable",
      "type": "function"
    },
    {
      "inputs": [
        {
          "internalType": "string",
          "name": "contractName",
          "type": "string"
        }
      ],
      "name": "setDomainHash",
      "outputs": [],
      "stateMutability": "nonpayable",
      "type": "function"
    },
    {
      "inputs": [
        {
          "components": [
            {
              "components": [
                {
                  "internalType": "address",
                  "name": "delegate",
                  "type": "address"
                },
                {
                  "internalType": "bytes32",
                  "name": "authority",
                  "type": "bytes32"
                },
                {
                  "components": [
                    {
                      "internalType": "address",
                      "name": "enforcer",
                      "type": "address"
                    },
                    {
                      "internalType": "bytes",
                      "name": "terms",
                      "type": "bytes"
                    }
                  ],
                  "internalType": "struct Caveat[]",
                  "name": "caveats",
                  "type": "tuple[]"
                }
              ],
              "internalType": "struct Delegation",
              "name": "delegation",
              "type": "tuple"
            },
            {
              "internalType": "bytes",
              "name": "signature",
              "type": "bytes"
            }
          ],
          "internalType": "struct SignedDelegation",
          "name": "signedDelegation",
          "type": "tuple"
        }
      ],
      "name": "verifyDelegationSignature",
      "outputs": [
        {
          "internalType": "address",
          "name": "",
          "type": "address"
        }
      ],
      "stateMutability": "view",
      "type": "function"
    },
    {
      "inputs": [
        {
          "components": [
            {
              "components": [
                {
                  "components": [
                    {
                      "components": [
                        {
                          "internalType": "address",
                          "name": "to",
                          "type": "address"
                        },
                        {
                          "internalType": "uint256",
                          "name": "gasLimit",
                          "type": "uint256"
                        },
                        {
                          "internalType": "bytes",
                          "name": "data",
                          "type": "bytes"
                        }
                      ],
                      "internalType": "struct Transaction",
                      "name": "transaction",
                      "type": "tuple"
                    },
                    {
                      "components": [
                        {
                          "components": [
                            {
                              "internalType": "address",
                              "name": "delegate",
                              "type": "address"
                            },
                            {
                              "internalType": "bytes32",
                              "name": "authority",
                              "type": "bytes32"
                            },
                            {
                              "components": [
                                {
                                  "internalType": "address",
                                  "name": "enforcer",
                                  "type": "address"
                                },
                                {
                                  "internalType": "bytes",
                                  "name": "terms",
                                  "type": "bytes"
                                }
                              ],
                              "internalType": "struct Caveat[]",
                              "name": "caveats",
                              "type": "tuple[]"
                            }
                          ],
                          "internalType": "struct Delegation",
                          "name": "delegation",
                          "type": "tuple"
                        },
                        {
                          "internalType": "bytes",
                          "name": "signature",
                          "type": "bytes"
                        }
                      ],
                      "internalType": "struct SignedDelegation[]",
                      "name": "authority",
                      "type": "tuple[]"
                    }
                  ],
                  "internalType": "struct Invocation[]",
                  "name": "batch",
                  "type": "tuple[]"
                },
                {
                  "components": [
                    {
                      "internalType": "uint256",
                      "name": "nonce",
                      "type": "uint256"
                    },
                    {
                      "internalType": "uint256",
                      "name": "queue",
                      "type": "uint256"
                    }
                  ],
                  "internalType": "struct ReplayProtection",
                  "name": "replayProtection",
                  "type": "tuple"
                }
              ],
              "internalType": "struct Invocations",
              "name": "invocations",
              "type": "tuple"
            },
            {
              "internalType": "bytes",
              "name": "signature",
              "type": "bytes"
            }
          ],
          "internalType": "struct SignedInvocation",
          "name": "signedInvocation",
          "type": "tuple"
        }
      ],
      "name": "verifyInvocationSignature",
      "outputs": [
        {
          "internalType": "address",
          "name": "",
          "type": "address"
        }
      ],
      "stateMutability": "view",
      "type": "function"
    }
  ],
  "bytecode": "0x608060405234801561001057600080fd5b50611cad806100206000396000f3fe608060405234801561001057600080fd5b506004361061016c5760003560e01c8063736f7ce7116100cd57806397182ed611610081578063caced6c511610066578063caced6c514610305578063d327c1eb14610318578063dfd4f1e4146103a257600080fd5b806397182ed6146102df578063a2e01f75146102f257600080fd5b806383e9c7b4116100b257806383e9c7b41461027857806389535803146102805780638a04499e146102b457600080fd5b8063736f7ce7146102525780637b577b581461026557600080fd5b80635cf1b24a116101245780636c2b1253116101095780636c2b1253146102195780636f9658031461022c5780637234eefe1461023f57600080fd5b80635cf1b24a146101f357806360b6d7681461020657600080fd5b80632fad7efc116101555780632fad7efc146101aa5780633a481821146101cd5780635c6d9f0c146101e057600080fd5b806308aaf6b0146101715780632f52a2fd14610197575b600080fd5b61018461017f36600461122d565b6103b7565b6040519081526020015b60405180910390f35b6101846101a5366004611379565b610437565b6101bd6101b83660046113fa565b6104a2565b604051901515815260200161018e565b6101846101db366004611659565b610569565b6101bd6101ee3660046113fa565b6105e0565b61018461020136600461168e565b6105f6565b61018461021436600461174d565b610653565b610184610227366004611782565b6106a5565b61018461023a3660046117b7565b610702565b61018461024d36600461174d565b610753565b6101846102603660046117d3565b610791565b610184610273366004611808565b6107f9565b610184610861565b61018461028e36600461183d565b6001600160a01b0391909116600090815260208181526040808320938352929052205490565b6102c76102c2366004611782565b6108c0565b6040516001600160a01b03909116815260200161018e565b6101846102ed366004611379565b6108ea565b610184610300366004611867565b6108fe565b6102c76103133660046118dc565b61096a565b610184610326366004611911565b8351602094850120835193850193909320604080517f8b73c3c69bb8fe3d512ecc4cf759cc79239f7b179b0ffacaa9a75d522b39400f8188015280820195909552606085019190915260808401929092526001600160a01b031660a0808401919091528151808403909101815260c09092019052805191012090565b6103b56103b036600461198f565b610994565b005b6000807f80ad7e1b04ee6d994a125f4714ca0720908bd80ed16063ec8aee4b88e9253e2d8360000151846020015180519060200120604051602001610418939291909283526001600160a01b03919091166020830152604082015260600190565b60408051601f1981840301815291905280516020909101209392505050565b6000807f409f5114779a253e700d775d7845e6efc1e83685ac59868d2df3d4de51c7d6218360000151846020015161047286604001516107f9565b6040805160208101959095526001600160a01b03909316928401929092526060830152608082015260a001610418565b6000805b8281101561056257368484838181106104c1576104c1611a01565b90506020028101906104d39190611a17565b905060006104e361031383611a37565b905061052f818787868181106104fb576104fb611a01565b905060200281019061050d9190611a17565b6105179080611a43565b60200180360381019061052a91906117b7565b610a93565b61054c61053c8380611a43565b6105469080611a59565b83610b67565b505050808061055a90611ab9565b9150506104a6565b5092915050565b6000606060005b83518110156105d1578161059c85838151811061058f5761058f611a01565b60200260200101516105f6565b6040516020016105ad929190611b02565b604051602081830303815290604052915080806105c990611ab9565b915050610570565b50805160209091012092915050565b60006105ed838333610b67565b90505b92915050565b6000807fd97dd99b404d177890f06a8f0fc8e5ed0333fb2ebb6684360709066e8984f59461062784600001516108fe565b6106348560200151610791565b6040805160208101949094528301919091526060820152608001610418565b60008061065e610861565b61066784610753565b6040517f1901000000000000000000000000000000000000000000000000000000000000602082015260228101929092526042820152606201610418565b6000807f3c36a06e1d288b0f94f565588317a46ad11bc3c96992109f9a2365a2737259a76106d68460000151610437565b602080860151805190820120604051610418949392019283526020830191909152604082015260600190565b6000807fe8d3d963b33868fb116316bc3fd55e8f49123f30e4418f71e140d54b7cd3b2b983600001518460200151604051602001610418939291909283526020830191909152604082015260600190565b6000807f08c69a206c06f5334b35ceb1186181a713b21aff02cf66285f375084fbef2eb86107848460000151610569565b6106348560200151610702565b6000606060005b83518110156105d157816107c48583815181106107b7576107b7611a01565b60200260200101516106a5565b6040516020016107d5929190611b02565b604051602081830303815290604052915080806107f190611ab9565b915050610798565b6000606060005b83518110156105d1578161082c85838151811061081f5761081f611a01565b60200260200101516103b7565b60405160200161083d929190611b02565b6040516020818303038152906040529150808061085990611ab9565b915050610800565b6001546000908082036108bb5760405162461bcd60e51b815260206004820152601360248201527f446f6d61696e2068617368206e6f74207365740000000000000000000000000060448201526064015b60405180910390fd5b919050565b8051600090816108cf826108ea565b905060006108e1828660200151610fa4565b95945050505050565b6000806108f5610861565b61066784610437565b6000807fb16dfdb3b8fa033fe30ac976cd4a50ad256b6811c80d90fcd0b323eec190047d8360000151846020015185604001518051906020012060405160200161041894939291909384526001600160a01b039290921660208401526040830152606082015260800190565b60008061097a8360000151610653565b9050600061098c828560200151610fa4565b949350505050565b610a8c82828080601f01602080910402602001604051908101604052809392919081815260200183838082843760009201919091525050604080518082018252600181527f310000000000000000000000000000000000000000000000000000000000000060209182015284519481019490942081517f8b73c3c69bb8fe3d512ecc4cf759cc79239f7b179b0ffacaa9a75d522b39400f81870152808301919091527fc89efdaa54c0f20c7adf612882df0950f5a951637e0307cdcb4c672f298b8bc660608201524660808201523060a0808301919091528251808303909101815260c0909101909152805193019290922092915050565b6001555050565b60208082015182516001600160a01b038516600090815280845260408082208483529094529290922054909190610acb906001611b24565b8114610b3f5760405162461bcd60e51b815260206004820152602360248201527f44656c6567617461626c65436f72653a6e6f6e6365322d6f75742d6f662d6f7260448201527f646572000000000000000000000000000000000000000000000000000000000060648201526084016108b2565b6001600160a01b03909316600090815260208181526040808320938352929052209190915550565b6000805b83811015610f9c576000858583818110610b8757610b87611a01565b9050602002810190610b999190611a17565b610ba290611b3c565b9050600080826020015151600003610bba5750849050805b6000805b846020015151811015610e7557600085602001518281518110610be357610be3611a01565b602002602001015190506000610bf8826108c0565b905082600003610c09578095508594505b846001600160a01b0316816001600160a01b031614610c905760405162461bcd60e51b815260206004820152602960248201527f44656c6567617461626c65436f72653a696e76616c69642d64656c656761746960448201527f6f6e2d7369676e6572000000000000000000000000000000000000000000000060648201526084016108b2565b815160208101518514610d0b5760405162461bcd60e51b815260206004820152603160248201527f44656c6567617461626c65436f72653a696e76616c69642d617574686f72697460448201527f792d64656c65676174696f6e2d6c696e6b00000000000000000000000000000060648201526084016108b2565b6000610d16846106a5565b905060005b8260400151518161ffff161015610e5857600083604001518261ffff1681518110610d4857610d48611a01565b60200260200101516000015190506000816001600160a01b0316635068de4c86604001518561ffff1681518110610d8157610d81611a01565b6020026020010151602001518e60000151876040518463ffffffff1660e01b8152600401610db193929190611b74565b6020604051808303816000875af1158015610dd0573d6000803e3d6000fd5b505050506040513d601f19601f82011682018060405250810190610df49190611bd1565b905080610e435760405162461bcd60e51b815260206004820152601f60248201527f44656c6567617461626c65436f72653a6361766561742d72656a65637465640060448201526064016108b2565b50508080610e5090611bfa565b915050610d1b565b50905195509350829150610e6d905081611ab9565b915050610bbe565b50835180516001600160a01b03163014610ef75760405162461bcd60e51b815260206004820152602960248201527f44656c6567617461626c65436f72653a696e76616c69642d696e766f6361746960448201527f6f6e2d746172676574000000000000000000000000000000000000000000000060648201526084016108b2565b610f0f8160000151826040015183602001518761107b565b965086610f845760405162461bcd60e51b815260206004820152602160248201527f44656c6567617461626c65436f72653a3a657865637574696f6e2d6661696c6560448201527f640000000000000000000000000000000000000000000000000000000000000060648201526084016108b2565b50505050508080610f9490611ab9565b915050610b6b565b509392505050565b6000806000808451604114610fbf57600093505050506105f0565b50505060208201516040830151606084015160001a601b811015610feb57610fe8601b82611c1b565b90505b8060ff16601b1415801561100357508060ff16601c14155b1561101457600093505050506105f0565b60408051600081526020810180835288905260ff831691810191909152606081018490526080810183905260019060a0016020604051602081039080840390855afa158015611067573d6000803e3d6000fd5b5050506020604051035193505050506105f0565b6000808483604051602001611091929190611c40565b604051602081830303815290604052905060008082516020840160008a89f19695505050505050565b634e487b7160e01b600052604160045260246000fd5b6040805190810167ffffffffffffffff811182821017156110f3576110f36110ba565b60405290565b6040516060810167ffffffffffffffff811182821017156110f3576110f36110ba565b604051601f8201601f1916810167ffffffffffffffff81118282101715611145576111456110ba565b604052919050565b80356001600160a01b03811681146108bb57600080fd5b600082601f83011261117557600080fd5b813567ffffffffffffffff81111561118f5761118f6110ba565b6111a2601f8201601f191660200161111c565b8181528460208386010111156111b757600080fd5b816020850160208301376000918101602001919091529392505050565b6000604082840312156111e657600080fd5b6111ee6110d0565b90506111f98261114d565b8152602082013567ffffffffffffffff81111561121557600080fd5b61122184828501611164565b60208301525092915050565b60006020828403121561123f57600080fd5b813567ffffffffffffffff81111561125657600080fd5b61098c848285016111d4565b600067ffffffffffffffff82111561127c5761127c6110ba565b5060051b60200190565b600082601f83011261129757600080fd5b813560206112ac6112a783611262565b61111c565b82815260059290921b840181019181810190868411156112cb57600080fd5b8286015b8481101561130b57803567ffffffffffffffff8111156112ef5760008081fd5b6112fd8986838b01016111d4565b8452509183019183016112cf565b509695505050505050565b60006060828403121561132857600080fd5b6113306110f9565b905061133b8261114d565b815260208201356020820152604082013567ffffffffffffffff81111561136157600080fd5b61136d84828501611286565b60408301525092915050565b60006020828403121561138b57600080fd5b813567ffffffffffffffff8111156113a257600080fd5b61098c84828501611316565b60008083601f8401126113c057600080fd5b50813567ffffffffffffffff8111156113d857600080fd5b6020830191508360208260051b85010111156113f357600080fd5b9250929050565b6000806020838503121561140d57600080fd5b823567ffffffffffffffff81111561142457600080fd5b611430858286016113ae565b90969095509350505050565b60006060828403121561144e57600080fd5b6114566110f9565b90506114618261114d565b815260208201356020820152604082013567ffffffffffffffff81111561148757600080fd5b61136d84828501611164565b6000604082840312156114a557600080fd5b6114ad6110d0565b9050813567ffffffffffffffff808211156114c757600080fd5b6114d385838601611316565b835260208401359150808211156114e957600080fd5b5061122184828501611164565b600082601f83011261150757600080fd5b813560206115176112a783611262565b82815260059290921b8401810191818101908684111561153657600080fd5b8286015b8481101561130b57803567ffffffffffffffff81111561155a5760008081fd5b6115688986838b0101611493565b84525091830191830161153a565b60006040828403121561158857600080fd5b6115906110d0565b9050813567ffffffffffffffff808211156115aa57600080fd5b6115b68583860161143c565b835260208401359150808211156115cc57600080fd5b50611221848285016114f6565b600082601f8301126115ea57600080fd5b813560206115fa6112a783611262565b82815260059290921b8401810191818101908684111561161957600080fd5b8286015b8481101561130b57803567ffffffffffffffff81111561163d5760008081fd5b61164b8986838b0101611576565b84525091830191830161161d565b60006020828403121561166b57600080fd5b813567ffffffffffffffff81111561168257600080fd5b61098c848285016115d9565b6000602082840312156116a057600080fd5b813567ffffffffffffffff8111156116b757600080fd5b61098c84828501611576565b6000604082840312156116d557600080fd5b6116dd6110d0565b9050813581526020820135602082015292915050565b60006060828403121561170557600080fd5b61170d6110d0565b9050813567ffffffffffffffff81111561172657600080fd5b611732848285016115d9565b82525061174283602084016116c3565b602082015292915050565b60006020828403121561175f57600080fd5b813567ffffffffffffffff81111561177657600080fd5b61098c848285016116f3565b60006020828403121561179457600080fd5b813567ffffffffffffffff8111156117ab57600080fd5b61098c84828501611493565b6000604082840312156117c957600080fd5b6105ed83836116c3565b6000602082840312156117e557600080fd5b813567ffffffffffffffff8111156117fc57600080fd5b61098c848285016114f6565b60006020828403121561181a57600080fd5b813567ffffffffffffffff81111561183157600080fd5b61098c84828501611286565b6000806040838503121561185057600080fd5b6118598361114d565b946020939093013593505050565b60006020828403121561187957600080fd5b813567ffffffffffffffff81111561189057600080fd5b61098c8482850161143c565b6000604082840312156118ae57600080fd5b6118b66110d0565b9050813567ffffffffffffffff808211156118d057600080fd5b6114d3858386016116f3565b6000602082840312156118ee57600080fd5b813567ffffffffffffffff81111561190557600080fd5b61098c8482850161189c565b6000806000806080858703121561192757600080fd5b843567ffffffffffffffff8082111561193f57600080fd5b61194b88838901611164565b9550602087013591508082111561196157600080fd5b5061196e87828801611164565b935050604085013591506119846060860161114d565b905092959194509250565b600080602083850312156119a257600080fd5b823567ffffffffffffffff808211156119ba57600080fd5b818501915085601f8301126119ce57600080fd5b8135818111156119dd57600080fd5b8660208285010111156119ef57600080fd5b60209290920196919550909350505050565b634e487b7160e01b600052603260045260246000fd5b60008235603e19833603018112611a2d57600080fd5b9190910192915050565b60006105f0368361189c565b60008235605e19833603018112611a2d57600080fd5b6000808335601e19843603018112611a7057600080fd5b83018035915067ffffffffffffffff821115611a8b57600080fd5b6020019150600581901b36038213156113f357600080fd5b634e487b7160e01b600052601160045260246000fd5b600060018201611acb57611acb611aa3565b5060010190565b60005b83811015611aed578181015183820152602001611ad5565b83811115611afc576000848401525b50505050565b60008351611b14818460208801611ad2565b9190910191825250602001919050565b60008219821115611b3757611b37611aa3565b500190565b60006105f03683611576565b60008151808452611b60816020860160208601611ad2565b601f01601f19169290920160200192915050565b606081526000611b876060830186611b48565b82810360208401526001600160a01b03855116815260208501516020820152604085015160606040830152611bbf6060830182611b48565b92505050826040830152949350505050565b600060208284031215611be357600080fd5b81518015158114611bf357600080fd5b9392505050565b600061ffff808316818103611c1157611c11611aa3565b6001019392505050565b600060ff821660ff84168060ff03821115611c3857611c38611aa3565b019392505050565b60008351611c52818460208801611ad2565b60609390931b6bffffffffffffffffffffffff1916919092019081526014019291505056fea2646970667358221220bed6d61dac8a30d663e993c74bdd5b6274c375ff351a3a5d9712bbd964850e0964736f6c634300080f0033",
  "linkReferences": {},
  "deployedLinkReferences": {}
}