{
  "_format": "hh-sol-artifact-1",
  "contractName": "FileStore",
  "sourceName": "contracts/store/fileStore/FileStore.sol",
  "abi": [
    {
      "inputs": [
        {
          "internalType": "contract IContentStore",
          "name": "_contentStore",
          "type": "address"
        }
      ],
      "stateMutability": "nonpayable",
      "type": "constructor"
    },
    {
      "inputs": [],
      "name": "EmptyFile",
      "type": "error"
    },
    {
      "inputs": [
        {
          "internalType": "string",
          "name": "filename",
          "type": "string"
        }
      ],
      "name": "FileNotFound",
      "type": "error"
    },
    {
      "inputs": [
        {
          "internalType": "string",
          "name": "filename",
          "type": "string"
        }
      ],
      "name": "FilenameExists",
      "type": "error"
    },
    {
      "inputs": [
        {
          "internalType": "uint256",
          "name": "_size",
          "type": "uint256"
        },
        {
          "internalType": "uint256",
          "name": "_start",
          "type": "uint256"
        },
        {
          "internalType": "uint256",
          "name": "_end",
          "type": "uint256"
        }
      ],
      "name": "InvalidCodeAtRange",
      "type": "error"
    },
    {
      "anonymous": false,
      "inputs": [
        {
          "indexed": true,
          "internalType": "string",
          "name": "indexedFilename",
          "type": "string"
        },
        {
          "indexed": true,
          "internalType": "bytes32",
          "name": "checksum",
          "type": "bytes32"
        },
        {
          "indexed": false,
          "internalType": "string",
          "name": "filename",
          "type": "string"
        },
        {
          "indexed": false,
          "internalType": "uint256",
          "name": "size",
          "type": "uint256"
        },
        {
          "indexed": false,
          "internalType": "bytes",
          "name": "metadata",
          "type": "bytes"
        }
      ],
      "name": "FileCreated",
      "type": "event"
    },
    {
      "anonymous": false,
      "inputs": [
        {
          "indexed": true,
          "internalType": "string",
          "name": "indexedFilename",
          "type": "string"
        },
        {
          "indexed": true,
          "internalType": "bytes32",
          "name": "checksum",
          "type": "bytes32"
        },
        {
          "indexed": false,
          "internalType": "string",
          "name": "filename",
          "type": "string"
        }
      ],
      "name": "FileDeleted",
      "type": "event"
    },
    {
      "inputs": [],
      "name": "contentStore",
      "outputs": [
        {
          "internalType": "contract IContentStore",
          "name": "",
          "type": "address"
        }
      ],
      "stateMutability": "view",
      "type": "function"
    },
    {
      "inputs": [
        {
          "internalType": "string",
          "name": "filename",
          "type": "string"
        },
        {
          "internalType": "bytes32[]",
          "name": "checksums",
          "type": "bytes32[]"
        }
      ],
      "name": "createFile",
      "outputs": [
        {
          "components": [
            {
              "internalType": "uint256",
              "name": "size",
              "type": "uint256"
            },
            {
              "components": [
                {
                  "internalType": "bytes32",
                  "name": "checksum",
                  "type": "bytes32"
                },
                {
                  "internalType": "address",
                  "name": "pointer",
                  "type": "address"
                }
              ],
              "internalType": "struct Content[]",
              "name": "contents",
              "type": "tuple[]"
            }
          ],
          "internalType": "struct File",
          "name": "file",
          "type": "tuple"
        }
      ],
      "stateMutability": "nonpayable",
      "type": "function"
    },
    {
      "inputs": [
        {
          "internalType": "string",
          "name": "filename",
          "type": "string"
        },
        {
          "internalType": "bytes32[]",
          "name": "checksums",
          "type": "bytes32[]"
        },
        {
          "internalType": "bytes",
          "name": "extraData",
          "type": "bytes"
        }
      ],
      "name": "createFile",
      "outputs": [
        {
          "components": [
            {
              "internalType": "uint256",
              "name": "size",
              "type": "uint256"
            },
            {
              "components": [
                {
                  "internalType": "bytes32",
                  "name": "checksum",
                  "type": "bytes32"
                },
                {
                  "internalType": "address",
                  "name": "pointer",
                  "type": "address"
                }
              ],
              "internalType": "struct Content[]",
              "name": "contents",
              "type": "tuple[]"
            }
          ],
          "internalType": "struct File",
          "name": "file",
          "type": "tuple"
        }
      ],
      "stateMutability": "nonpayable",
      "type": "function"
    },
    {
      "inputs": [
        {
          "internalType": "string",
          "name": "filename",
          "type": "string"
        }
      ],
      "name": "deleteFile",
      "outputs": [],
      "stateMutability": "nonpayable",
      "type": "function"
    },
    {
      "inputs": [
        {
          "internalType": "string",
          "name": "filename",
          "type": "string"
        }
      ],
      "name": "fileExists",
      "outputs": [
        {
          "internalType": "bool",
          "name": "",
          "type": "bool"
        }
      ],
      "stateMutability": "view",
      "type": "function"
    },
    {
      "inputs": [
        {
          "internalType": "string",
          "name": "",
          "type": "string"
        }
      ],
      "name": "files",
      "outputs": [
        {
          "internalType": "bytes32",
          "name": "",
          "type": "bytes32"
        }
      ],
      "stateMutability": "view",
      "type": "function"
    },
    {
      "inputs": [
        {
          "internalType": "string",
          "name": "filename",
          "type": "string"
        }
      ],
      "name": "getChecksum",
      "outputs": [
        {
          "internalType": "bytes32",
          "name": "checksum",
          "type": "bytes32"
        }
      ],
      "stateMutability": "view",
      "type": "function"
    },
    {
      "inputs": [
        {
          "internalType": "string",
          "name": "filename",
          "type": "string"
        }
      ],
      "name": "getFile",
      "outputs": [
        {
          "components": [
            {
              "internalType": "uint256",
              "name": "size",
              "type": "uint256"
            },
            {
              "components": [
                {
                  "internalType": "bytes32",
                  "name": "checksum",
                  "type": "bytes32"
                },
                {
                  "internalType": "address",
                  "name": "pointer",
                  "type": "address"
                }
              ],
              "internalType": "struct Content[]",
              "name": "contents",
              "type": "tuple[]"
            }
          ],
          "internalType": "struct File",
          "name": "file",
          "type": "tuple"
        }
      ],
      "stateMutability": "view",
      "type": "function"
    }
  ],
  "bytecode": "0x60a060405234801561001057600080fd5b5060405161100a38038061100a83398101604081905261002f91610040565b6001600160a01b0316608052610070565b60006020828403121561005257600080fd5b81516001600160a01b038116811461006957600080fd5b9392505050565b608051610f646100a66000396000818160bb0152818161041b0152818161055d0152818161063b01526107710152610f646000f3fe608060405234801561001057600080fd5b50600436106100885760003560e01c8063a52e640e1161005b578063a52e640e1461012b578063a99100541461014c578063e0876aa814610161578063e77557611461017457600080fd5b80631eb8bc4e1461008d5780633a6e674c146100b657806397207992146100f55780639bccd6ad14610108575b600080fd5b6100a061009b366004610afd565b61019f565b6040516100ad9190610b61565b60405180910390f35b6100dd7f000000000000000000000000000000000000000000000000000000000000000081565b6040516001600160a01b0390911681526020016100ad565b6100a0610103366004610bce565b6101d7565b61011b610116366004610c6a565b610264565b60405190151581526020016100ad565b61013e610139366004610c6a565b610292565b6040519081526020016100ad565b61015f61015a366004610c6a565b6102da565b005b6100a061016f366004610c6a565b610391565b61013e610182366004610c6a565b805160208183018101805160008252928201919093012091525481565b6040805180820182526000808252606060208084019190915283519182528101909252906101d090849084906101d7565b9392505050565b6040805180820190915260008152606060208201526000801b6000856040516102009190610ccf565b9081526020016040518091039020541461025157836040517f30add8a00000000000000000000000000000000000000000000000000000000081526004016102489190610d17565b60405180910390fd5b61025c8484846104d5565b949350505050565b60008060001b60008360405161027a9190610ccf565b90815260200160405180910390205414159050919050565b600080826040516102a39190610ccf565b908152604051908190036020019020549050806102d55781604051630b5d665f60e31b81526004016102489190610d17565b919050565b600080826040516102eb9190610ccf565b9081526040519081900360200190205490508061031d5781604051630b5d665f60e31b81526004016102489190610d17565b60008260405161032d9190610ccf565b908152602001604051809103902060009055808260405161034e9190610ccf565b60405180910390207f049d33e2ff016446d304c7c9f197f7112de9a3b3134df07ca017294a25a4e461846040516103859190610d17565b60405180910390a35050565b604080518082019091526000815260606020820152600080836040516103b79190610ccf565b908152604051908190036020019020549050806103e95782604051630b5d665f60e31b81526004016102489190610d17565b6040517f1bf226ac000000000000000000000000000000000000000000000000000000008152600481018290526000907f00000000000000000000000000000000000000000000000000000000000000006001600160a01b031690631bf226ac90602401602060405180830381865afa15801561046a573d6000803e3d6000fd5b505050506040513d601f19601f8201168201806040525081019061048e9190610d41565b90506001600160a01b0381166104b95783604051630b5d665f60e31b81526004016102489190610d17565b6104c2816108a2565b80602001905181019061025c9190610d5c565b6040805180820190915260008152606060208201526000835167ffffffffffffffff81111561050657610506610986565b60405190808252806020026020018201604052801561054b57816020015b60408051808201909152600080825260208201528152602001906001900390816105245790505b5090506000805b855181101561071b577f00000000000000000000000000000000000000000000000000000000000000006001600160a01b03166331654b0987838151811061059c5761059c610e57565b60200260200101516040518263ffffffff1660e01b81526004016105c291815260200190565b602060405180830381865afa1580156105df573d6000803e3d6000fd5b505050506040513d601f19601f820116820180604052508101906106039190610e6d565b61060d9083610e9c565b9150604051806040016040528087838151811061062c5761062c610e57565b602002602001015181526020017f00000000000000000000000000000000000000000000000000000000000000006001600160a01b0316634641dce689858151811061067a5761067a610e57565b60200260200101516040518263ffffffff1660e01b81526004016106a091815260200190565b602060405180830381865afa1580156106bd573d6000803e3d6000fd5b505050506040513d601f19601f820116820180604052508101906106e19190610d41565b6001600160a01b03168152508382815181106106ff576106ff610e57565b60200260200101819052508061071490610eb4565b9050610552565b5080600003610756576040517f067b6a0f00000000000000000000000000000000000000000000000000000000815260040160405180910390fd5b604051806040016040528082815260200183815250925060007f00000000000000000000000000000000000000000000000000000000000000006001600160a01b031663093e9839856040516020016107af9190610b61565b6040516020818303038152906040526040518263ffffffff1660e01b81526004016107da9190610d17565b60408051808303816000875af11580156107f8573d6000803e3d6000fd5b505050506040513d601f19601f8201168201806040525081019061081c9190610ecd565b509050806000886040516108309190610ccf565b90815260200160405180910390208190555080876040516108519190610ccf565b60405180910390207fbf4d3dad9eb190a395deec4f74f993087bfb5df21ff6c0e1403ec61042090c2d8987600001518960405161089093929190610ef9565b60405180910390a35050509392505050565b60606108b28260016000196108b8565b92915050565b6060833b60008190036108db5750506040805160208101909152600081526101d0565b808411156108f95750506040805160208101909152600081526101d0565b83831015610944576040517f2c4a89fa000000000000000000000000000000000000000000000000000000008152600481018290526024810185905260448101849052606401610248565b8383038482036000828210610959578261095b565b815b60408051603f8301601f19168101909152818152955090508087602087018a3c505050509392505050565b634e487b7160e01b600052604160045260246000fd5b6040805190810167ffffffffffffffff811182821017156109bf576109bf610986565b60405290565b604051601f8201601f1916810167ffffffffffffffff811182821017156109ee576109ee610986565b604052919050565b600067ffffffffffffffff831115610a1057610a10610986565b610a23601f8401601f19166020016109c5565b9050828152838383011115610a3757600080fd5b828260208301376000602084830101529392505050565b600082601f830112610a5f57600080fd5b6101d0838335602085016109f6565b600067ffffffffffffffff821115610a8857610a88610986565b5060051b60200190565b600082601f830112610aa357600080fd5b81356020610ab8610ab383610a6e565b6109c5565b82815260059290921b84018101918181019086841115610ad757600080fd5b8286015b84811015610af25780358352918301918301610adb565b509695505050505050565b60008060408385031215610b1057600080fd5b823567ffffffffffffffff80821115610b2857600080fd5b610b3486838701610a4e565b93506020850135915080821115610b4a57600080fd5b50610b5785828601610a92565b9150509250929050565b602080825282518282015282810151604080840181905281516060850181905260009392830191849160808701905b80841015610bc2578451805183528601516001600160a01b031686830152938501936001939093019290820190610b90565b50979650505050505050565b600080600060608486031215610be357600080fd5b833567ffffffffffffffff80821115610bfb57600080fd5b610c0787838801610a4e565b94506020860135915080821115610c1d57600080fd5b610c2987838801610a92565b93506040860135915080821115610c3f57600080fd5b508401601f81018613610c5157600080fd5b610c60868235602084016109f6565b9150509250925092565b600060208284031215610c7c57600080fd5b813567ffffffffffffffff811115610c9357600080fd5b61025c84828501610a4e565b60005b83811015610cba578181015183820152602001610ca2565b83811115610cc9576000848401525b50505050565b60008251610ce1818460208701610c9f565b9190910192915050565b60008151808452610d03816020860160208601610c9f565b601f01601f19169290920160200192915050565b6020815260006101d06020830184610ceb565b80516001600160a01b03811681146102d557600080fd5b600060208284031215610d5357600080fd5b6101d082610d2a565b60006020808385031215610d6f57600080fd5b825167ffffffffffffffff80821115610d8757600080fd5b81850191506040808388031215610d9d57600080fd5b610da561099c565b835181528484015183811115610dba57600080fd5b80850194505087601f850112610dcf57600080fd5b83519250610ddf610ab384610a6e565b83815260069390931b84018501928581019089851115610dfe57600080fd5b948601945b84861015610e455783868b031215610e1b5760008081fd5b610e2361099c565b86518152610e32888801610d2a565b8189015282529483019490860190610e03565b95820195909552979650505050505050565b634e487b7160e01b600052603260045260246000fd5b600060208284031215610e7f57600080fd5b5051919050565b634e487b7160e01b600052601160045260246000fd5b60008219821115610eaf57610eaf610e86565b500190565b600060018201610ec657610ec6610e86565b5060010190565b60008060408385031215610ee057600080fd5b82519150610ef060208401610d2a565b90509250929050565b606081526000610f0c6060830186610ceb565b8460208401528281036040840152610f248185610ceb565b969550505050505056fea2646970667358221220df94b596974472e18c0f108529ef10db0d8543005f857579edbaa4de696633ee64736f6c634300080f0033",
  "linkReferences": {},
  "deployedLinkReferences": {}
}