{
  "_format": "hh-sol-artifact-1",
  "contractName": "ERC721TokenBaseFacet",
  "sourceName": "contracts/facets/ERC721TokenBaseFacet.sol",
  "abi": [
    {
      "inputs": [
        {
          "internalType": "uint256",
          "name": "_size",
          "type": "uint256"
        },
        {
          "internalType": "uint256",
          "name": "_start",
          "type": "uint256"
        },
        {
          "internalType": "uint256",
          "name": "_end",
          "type": "uint256"
        }
      ],
      "name": "InvalidCodeAtRange",
      "type": "error"
    },
    {
      "inputs": [
        {
          "internalType": "address",
          "name": "operator",
          "type": "address"
        }
      ],
      "name": "OperatorNotAllowed",
      "type": "error"
    },
    {
      "inputs": [],
      "name": "WriteError",
      "type": "error"
    },
    {
      "anonymous": false,
      "inputs": [
        {
          "indexed": true,
          "internalType": "address",
          "name": "owner",
          "type": "address"
        },
        {
          "indexed": true,
          "internalType": "address",
          "name": "operator",
          "type": "address"
        },
        {
          "indexed": true,
          "internalType": "uint256",
          "name": "tokenId",
          "type": "uint256"
        }
      ],
      "name": "Approval",
      "type": "event"
    },
    {
      "anonymous": false,
      "inputs": [
        {
          "indexed": true,
          "internalType": "address",
          "name": "owner",
          "type": "address"
        },
        {
          "indexed": true,
          "internalType": "address",
          "name": "operator",
          "type": "address"
        },
        {
          "indexed": false,
          "internalType": "bool",
          "name": "approved",
          "type": "bool"
        }
      ],
      "name": "ApprovalForAll",
      "type": "event"
    },
    {
      "anonymous": false,
      "inputs": [
        {
          "indexed": true,
          "internalType": "address",
          "name": "from",
          "type": "address"
        },
        {
          "indexed": true,
          "internalType": "address",
          "name": "to",
          "type": "address"
        },
        {
          "indexed": true,
          "internalType": "uint256",
          "name": "tokenId",
          "type": "uint256"
        }
      ],
      "name": "Transfer",
      "type": "event"
    },
    {
      "inputs": [],
      "name": "OPERATOR_FILTER_REGISTRY",
      "outputs": [
        {
          "internalType": "contract IOperatorFilterRegistry",
          "name": "",
          "type": "address"
        }
      ],
      "stateMutability": "view",
      "type": "function"
    },
    {
      "inputs": [
        {
          "internalType": "uint256",
          "name": "tokenId",
          "type": "uint256"
        },
        {
          "internalType": "string",
          "name": "base64Animation",
          "type": "string"
        },
        {
          "internalType": "uint256",
          "name": "chunkNo",
          "type": "uint256"
        },
        {
          "internalType": "uint256",
          "name": "numChunks",
          "type": "uint256"
        }
      ],
      "name": "addTokenAnimationChunk",
      "outputs": [],
      "stateMutability": "nonpayable",
      "type": "function"
    },
    {
      "inputs": [
        {
          "internalType": "uint256",
          "name": "tokenId",
          "type": "uint256"
        },
        {
          "internalType": "string",
          "name": "base64Animation",
          "type": "string"
        },
        {
          "internalType": "uint256",
          "name": "chunkNo",
          "type": "uint256"
        }
      ],
      "name": "addTokenAnimationChunk",
      "outputs": [],
      "stateMutability": "nonpayable",
      "type": "function"
    },
    {
      "inputs": [
        {
          "internalType": "uint256",
          "name": "tokenId",
          "type": "uint256"
        },
        {
          "internalType": "string",
          "name": "base64Image",
          "type": "string"
        },
        {
          "internalType": "uint256",
          "name": "chunkNo",
          "type": "uint256"
        }
      ],
      "name": "addTokenImageChunk",
      "outputs": [],
      "stateMutability": "nonpayable",
      "type": "function"
    },
    {
      "inputs": [
        {
          "internalType": "uint256",
          "name": "tokenId",
          "type": "uint256"
        },
        {
          "internalType": "string",
          "name": "base64Image",
          "type": "string"
        },
        {
          "internalType": "uint256",
          "name": "chunkNo",
          "type": "uint256"
        },
        {
          "internalType": "uint256",
          "name": "numChunks",
          "type": "uint256"
        }
      ],
      "name": "addTokenImageChunk",
      "outputs": [],
      "stateMutability": "nonpayable",
      "type": "function"
    },
    {
      "inputs": [
        {
          "internalType": "address",
          "name": "operator",
          "type": "address"
        },
        {
          "internalType": "uint256",
          "name": "tokenId",
          "type": "uint256"
        }
      ],
      "name": "approve",
      "outputs": [],
      "stateMutability": "payable",
      "type": "function"
    },
    {
      "inputs": [
        {
          "internalType": "address",
          "name": "account",
          "type": "address"
        }
      ],
      "name": "balanceOf",
      "outputs": [
        {
          "internalType": "uint256",
          "name": "",
          "type": "uint256"
        }
      ],
      "stateMutability": "view",
      "type": "function"
    },
    {
      "inputs": [],
      "name": "contractURI",
      "outputs": [
        {
          "internalType": "string",
          "name": "",
          "type": "string"
        }
      ],
      "stateMutability": "view",
      "type": "function"
    },
    {
      "inputs": [
        {
          "internalType": "uint256",
          "name": "tokenId",
          "type": "uint256"
        }
      ],
      "name": "getApproved",
      "outputs": [
        {
          "internalType": "address",
          "name": "",
          "type": "address"
        }
      ],
      "stateMutability": "view",
      "type": "function"
    },
    {
      "inputs": [
        {
          "internalType": "uint256",
          "name": "tokenId",
          "type": "uint256"
        }
      ],
      "name": "getMissingTokenChunks",
      "outputs": [
        {
          "internalType": "uint256[]",
          "name": "",
          "type": "uint256[]"
        },
        {
          "internalType": "uint256[]",
          "name": "",
          "type": "uint256[]"
        }
      ],
      "stateMutability": "view",
      "type": "function"
    },
    {
      "inputs": [
        {
          "internalType": "uint256",
          "name": "totalSize",
          "type": "uint256"
        }
      ],
      "name": "getTokenChunkBoundaries",
      "outputs": [
        {
          "internalType": "uint256[]",
          "name": "",
          "type": "uint256[]"
        }
      ],
      "stateMutability": "pure",
      "type": "function"
    },
    {
      "inputs": [
        {
          "internalType": "uint256",
          "name": "tokenId",
          "type": "uint256"
        }
      ],
      "name": "getTotalTokenChunks",
      "outputs": [
        {
          "internalType": "uint256",
          "name": "",
          "type": "uint256"
        },
        {
          "internalType": "uint256",
          "name": "",
          "type": "uint256"
        }
      ],
      "stateMutability": "view",
      "type": "function"
    },
    {
      "inputs": [
        {
          "internalType": "address",
          "name": "account",
          "type": "address"
        },
        {
          "internalType": "address",
          "name": "operator",
          "type": "address"
        }
      ],
      "name": "isApprovedForAll",
      "outputs": [
        {
          "internalType": "bool",
          "name": "",
          "type": "bool"
        }
      ],
      "stateMutability": "view",
      "type": "function"
    },
    {
      "inputs": [
        {
          "internalType": "string",
          "name": "base64Image",
          "type": "string"
        },
        {
          "internalType": "string",
          "name": "base64Animation",
          "type": "string"
        },
        {
          "internalType": "enum LibImageStorage.ResolutionMethod",
          "name": "imageMethod",
          "type": "uint8"
        },
        {
          "internalType": "enum LibImageStorage.ResolutionMethod",
          "name": "animationMethod",
          "type": "uint8"
        },
        {
          "internalType": "address",
          "name": "toAddress",
          "type": "address"
        },
        {
          "internalType": "uint256",
          "name": "totalImgSize",
          "type": "uint256"
        },
        {
          "internalType": "uint256",
          "name": "totalAnimSize",
          "type": "uint256"
        }
      ],
      "name": "mint",
      "outputs": [],
      "stateMutability": "nonpayable",
      "type": "function"
    },
    {
      "inputs": [
        {
          "internalType": "string",
          "name": "base64Image",
          "type": "string"
        },
        {
          "internalType": "string",
          "name": "base64Animation",
          "type": "string"
        },
        {
          "internalType": "enum LibImageStorage.ResolutionMethod",
          "name": "imageMethod",
          "type": "uint8"
        },
        {
          "internalType": "enum LibImageStorage.ResolutionMethod",
          "name": "animationMethod",
          "type": "uint8"
        },
        {
          "internalType": "uint32",
          "name": "numTokens",
          "type": "uint32"
        },
        {
          "internalType": "address",
          "name": "toAddress",
          "type": "address"
        },
        {
          "internalType": "uint256",
          "name": "totalImgSize",
          "type": "uint256"
        },
        {
          "internalType": "uint256",
          "name": "totalAnimSize",
          "type": "uint256"
        }
      ],
      "name": "mintBatch",
      "outputs": [],
      "stateMutability": "nonpayable",
      "type": "function"
    },
    {
      "inputs": [
        {
          "internalType": "uint32",
          "name": "numTokens",
          "type": "uint32"
        },
        {
          "internalType": "address",
          "name": "toAddress",
          "type": "address"
        }
      ],
      "name": "mintExtBatch",
      "outputs": [],
      "stateMutability": "nonpayable",
      "type": "function"
    },
    {
      "inputs": [
        {
          "internalType": "uint256",
          "name": "tokenId",
          "type": "uint256"
        }
      ],
      "name": "ownerOf",
      "outputs": [
        {
          "internalType": "address",
          "name": "",
          "type": "address"
        }
      ],
      "stateMutability": "view",
      "type": "function"
    },
    {
      "inputs": [
        {
          "internalType": "address",
          "name": "from",
          "type": "address"
        },
        {
          "internalType": "address",
          "name": "to",
          "type": "address"
        },
        {
          "internalType": "uint256",
          "name": "tokenId",
          "type": "uint256"
        }
      ],
      "name": "safeTransferFrom",
      "outputs": [],
      "stateMutability": "payable",
      "type": "function"
    },
    {
      "inputs": [
        {
          "internalType": "address",
          "name": "from",
          "type": "address"
        },
        {
          "internalType": "address",
          "name": "to",
          "type": "address"
        },
        {
          "internalType": "uint256",
          "name": "tokenId",
          "type": "uint256"
        },
        {
          "internalType": "bytes",
          "name": "data",
          "type": "bytes"
        }
      ],
      "name": "safeTransferFrom",
      "outputs": [],
      "stateMutability": "payable",
      "type": "function"
    },
    {
      "inputs": [
        {
          "internalType": "address",
          "name": "operator",
          "type": "address"
        },
        {
          "internalType": "bool",
          "name": "approved",
          "type": "bool"
        }
      ],
      "name": "setApprovalForAll",
      "outputs": [],
      "stateMutability": "nonpayable",
      "type": "function"
    },
    {
      "inputs": [
        {
          "internalType": "uint256",
          "name": "tokenId",
          "type": "uint256"
        },
        {
          "internalType": "bytes32[]",
          "name": "dataKeys",
          "type": "bytes32[]"
        },
        {
          "internalType": "bytes[]",
          "name": "dataValues",
          "type": "bytes[]"
        }
      ],
      "name": "setTokenMetadata",
      "outputs": [],
      "stateMutability": "nonpayable",
      "type": "function"
    },
    {
      "inputs": [
        {
          "internalType": "bytes4",
          "name": "interfaceId",
          "type": "bytes4"
        }
      ],
      "name": "supportsInterface",
      "outputs": [
        {
          "internalType": "bool",
          "name": "",
          "type": "bool"
        }
      ],
      "stateMutability": "pure",
      "type": "function"
    },
    {
      "inputs": [],
      "name": "supportsInterfaces",
      "outputs": [
        {
          "internalType": "bytes4[]",
          "name": "",
          "type": "bytes4[]"
        }
      ],
      "stateMutability": "pure",
      "type": "function"
    },
    {
      "inputs": [
        {
          "internalType": "uint256",
          "name": "index",
          "type": "uint256"
        }
      ],
      "name": "tokenByIndex",
      "outputs": [
        {
          "internalType": "uint256",
          "name": "",
          "type": "uint256"
        }
      ],
      "stateMutability": "view",
      "type": "function"
    },
    {
      "inputs": [
        {
          "internalType": "uint256",
          "name": "_tokenId",
          "type": "uint256"
        }
      ],
      "name": "tokenIdToGif",
      "outputs": [
        {
          "internalType": "string",
          "name": "",
          "type": "string"
        }
      ],
      "stateMutability": "view",
      "type": "function"
    },
    {
      "inputs": [
        {
          "internalType": "address",
          "name": "owner",
          "type": "address"
        },
        {
          "internalType": "uint256",
          "name": "index",
          "type": "uint256"
        }
      ],
      "name": "tokenOfOwnerByIndex",
      "outputs": [
        {
          "internalType": "uint256",
          "name": "",
          "type": "uint256"
        }
      ],
      "stateMutability": "view",
      "type": "function"
    },
    {
      "inputs": [
        {
          "internalType": "uint256",
          "name": "_tokenId",
          "type": "uint256"
        }
      ],
      "name": "tokenURI",
      "outputs": [
        {
          "internalType": "string",
          "name": "",
          "type": "string"
        }
      ],
      "stateMutability": "view",
      "type": "function"
    },
    {
      "inputs": [],
      "name": "totalSupply",
      "outputs": [
        {
          "internalType": "uint256",
          "name": "",
          "type": "uint256"
        }
      ],
      "stateMutability": "view",
      "type": "function"
    },
    {
      "inputs": [
        {
          "internalType": "address",
          "name": "from",
          "type": "address"
        },
        {
          "internalType": "address",
          "name": "to",
          "type": "address"
        },
        {
          "internalType": "uint256",
          "name": "tokenId",
          "type": "uint256"
        }
      ],
      "name": "transferFrom",
      "outputs": [],
      "stateMutability": "payable",
      "type": "function"
    },
    {
      "inputs": [
        {
          "internalType": "address",
          "name": "_wallet",
          "type": "address"
        }
      ],
      "name": "walletOfOwner",
      "outputs": [
        {
          "internalType": "uint256[]",
          "name": "",
          "type": "uint256[]"
        }
      ],
      "stateMutability": "view",
      "type": "function"
    }
  ],
  "bytecode": "0x60806040523480156200001157600080fd5b50733cc6cdda760b79bafa08df41ecfa224f810dceb660016daaeb6d7670e522a718067333cd4e3b156200016e578015620000bc57604051633e9f1edf60e11b81523060048201526001600160a01b03831660248201526daaeb6d7670e522a718067333cd4e90637d3e3dbe906044015b600060405180830381600087803b1580156200009d57600080fd5b505af1158015620000b2573d6000803e3d6000fd5b505050506200016e565b6001600160a01b038216156200010d5760405163a0af290360e01b81523060048201526001600160a01b03831660248201526daaeb6d7670e522a718067333cd4e9063a0af29039060440162000082565b604051632210724360e11b81523060048201526daaeb6d7670e522a718067333cd4e90634420e48690602401600060405180830381600087803b1580156200015457600080fd5b505af115801562000169573d6000803e3d6000fd5b505050505b5050614fec80620001806000396000f3fe6080604052600436106101cd5760003560e01c80634c213be3116100f7578063a5954dd711610095578063e8a3d48511610064578063e8a3d4851461054d578063e985e9c514610562578063ed0ac95a14610582578063f59d5616146105a257600080fd5b8063a5954dd7146104d8578063b88d4fde146104fa578063c0b9ee2d1461050d578063c87b56dd1461052d57600080fd5b80636352211e116100d15780636352211e1461045857806370a08231146104785780638d14f53814610498578063a22cb465146104b857600080fd5b80634c213be3146103f85780634f6ccce714610418578063592c406c1461043857600080fd5b80632a3d34df1161016f57806341f434341161013e57806341f434341461037657806342842e0e1461039857806342baee64146103ab578063438b6300146103cb57600080fd5b80632a3d34df146102e85780632b74e057146103085780632f745c59146103285780633e29ed701461034857600080fd5b806318160ddd116101ab57806318160ddd1461026557806323b872dd1461028857806327688b021461029b5780632a07cb86146102c857600080fd5b806301ffc9a7146101d2578063081812fc14610218578063095ea7b314610250575b600080fd5b3480156101de57600080fd5b506102036101ed366004613f11565b6001600160e01b0319166380ac58cd60e01b1490565b60405190151581526020015b60405180910390f35b34801561022457600080fd5b50610238610233366004613f2e565b61062f565b6040516001600160a01b03909116815260200161020f565b61026361025e366004613f63565b610640565b005b34801561027157600080fd5b5061027a6106fb565b60405190815260200161020f565b610263610296366004613f8d565b61070a565b3480156102a757600080fd5b506102bb6102b6366004613f2e565b6107ee565b60405161020f9190614021565b3480156102d457600080fd5b506102636102e3366004614085565b610867565b3480156102f457600080fd5b5061026361030336600461414d565b6108fb565b34801561031457600080fd5b50610263610323366004614180565b6109aa565b34801561033457600080fd5b5061027a610343366004613f63565b610a89565b34801561035457600080fd5b50610368610363366004613f2e565b610a9c565b60405161020f92919061420e565b34801561038257600080fd5b506102386daaeb6d7670e522a718067333cd4e81565b6102636103a6366004613f8d565b610ad4565b3480156103b757600080fd5b506102636103c636600461423c565b610bac565b3480156103d757600080fd5b506103eb6103e6366004614302565b610bed565b60405161020f919061431d565b34801561040457600080fd5b50610263610413366004614330565b610c8f565b34801561042457600080fd5b5061027a610433366004613f2e565b610d6e565b34801561044457600080fd5b50610263610453366004614330565b610d79565b34801561046457600080fd5b50610238610473366004613f2e565b610e48565b34801561048457600080fd5b5061027a610493366004614302565b610e53565b3480156104a457600080fd5b506102636104b3366004614502565b610e5e565b3480156104c457600080fd5b506102636104d33660046145d4565b6110c2565b3480156104e457600080fd5b506104ed611177565b60405161020f919061460b565b610263610508366004614659565b6111d6565b34801561051957600080fd5b50610263610528366004614180565b6112af565b34801561053957600080fd5b506102bb610548366004613f2e565b61137e565b34801561055957600080fd5b506102bb611794565b34801561056e57600080fd5b5061020361057d3660046146c1565b611b28565b34801561058e57600080fd5b506103eb61059d366004613f2e565b611b77565b3480156105ae57600080fd5b5061061a6105bd366004613f2e565b60009081527fa6c468abe8a508ef1a979c41eda5df8049bf599d0e0eca56ade203bdd27ca67660209081526040808320547fa6c468abe8a508ef1a979c41eda5df8049bf599d0e0eca56ade203bdd27ca677909252909120549091565b6040805192835260208301919091520161020f565b600061063a82611b82565b92915050565b6040516354f6127f60e01b81527f8e9490b81c08e89c50c70d11fc20336f38ac92de55246647f59fd7e4591a21a86004820152829060009030906354f6127f90602401600060405180830381865afa1580156106a0573d6000803e3d6000fd5b505050506040513d6000823e601f3d908101601f191682016040526106c8919081019061470d565b6106d190614756565b905060008190036106e25750505050565b6106eb82611c3e565b6106f58484611d2c565b50505050565b6000610705611e5d565b905090565b6040516354f6127f60e01b81527f8e9490b81c08e89c50c70d11fc20336f38ac92de55246647f59fd7e4591a21a86004820152839060009030906354f6127f90602401600060405180830381865afa15801561076a573d6000803e3d6000fd5b505050506040513d6000823e601f3d908101601f19168201604052610792919081019061470d565b61079b90614756565b905060008190036107ac57506106f5565b6107b4611e88565b6001600160a01b0316826001600160a01b0316146107dc576107dc6107d7611e88565b611c3e565b6107e7858585611eef565b5050505050565b60008181527fa6c468abe8a508ef1a979c41eda5df8049bf599d0e0eca56ade203bdd27ca679602090815260409182902091516060927fa6c468abe8a508ef1a979c41eda5df8049bf599d0e0eca56ade203bdd27ca6749261085092016147ae565b604051602081830303815290604052915050919050565b7fad4f1a7cd36a357eed365860a2e047f3b732c8ebdeb5c9c8c666bdc341cef48a610890611e88565b81546001600160a01b039081169116146108de5760405162461bcd60e51b815260206004820152600a60248201526937b7363c9037bbb732b960b11b60448201526064015b60405180910390fd5b6108ef8a8a8a8a8a8a8a8a8a611f76565b50505050505050505050565b610903611e88565b6001600160a01b0316306001600160a01b0316146109635760405162461bcd60e51b815260206004820152601e60248201527f6f6e6c792065786563757461626c652066726f6d20746865206661636574000060448201526064016108d5565b600061096d6106fb565b905060005b8363ffffffff168110156106f55761098a8383611fc8565b8161099481614869565b92505080806109a290614869565b915050610972565b7fad4f1a7cd36a357eed365860a2e047f3b732c8ebdeb5c9c8c666bdc341cef48a6109d3611e88565b81546001600160a01b03908116911614610a1c5760405162461bcd60e51b815260206004820152600a60248201526937b7363c9037bbb732b960b11b60448201526064016108d5565b60008581527fa6c468abe8a508ef1a979c41eda5df8049bf599d0e0eca56ade203bdd27ca676602052604090207fa6c468abe8a508ef1a979c41eda5df8049bf599d0e0eca56ade203bdd27ca67490610a8190610a798787612104565b856000612192565b505050505050565b6000610a958383612252565b9392505050565b6060807fa6c468abe8a508ef1a979c41eda5df8049bf599d0e0eca56ade203bdd27ca674610aca848261227f565b9250925050915091565b6040516354f6127f60e01b81527f8e9490b81c08e89c50c70d11fc20336f38ac92de55246647f59fd7e4591a21a86004820152839060009030906354f6127f90602401600060405180830381865afa158015610b34573d6000803e3d6000fd5b505050506040513d6000823e601f3d908101601f19168201604052610b5c919081019061470d565b610b6590614756565b90506000819003610b7657506106f5565b610b7e611e88565b6001600160a01b0316826001600160a01b031614610ba157610ba16107d7611e88565b6107e7858585612433565b60005b8463ffffffff16811015610be057610bce8b8b8b8b8b8b8a8a8a611f76565b80610bd881614869565b915050610baf565b5050505050505050505050565b60606000610bfa8361244e565b905060008167ffffffffffffffff811115610c1757610c1761438e565b604051908082528060200260200182016040528015610c40578160200160208202803683370190505b50905060005b82811015610c8757610c588582610a89565b828281518110610c6a57610c6a614882565b602090810291909101015280610c7f81614869565b915050610c46565b509392505050565b7fad4f1a7cd36a357eed365860a2e047f3b732c8ebdeb5c9c8c666bdc341cef48a610cb8611e88565b81546001600160a01b03908116911614610d015760405162461bcd60e51b815260206004820152600a60248201526937b7363c9037bbb732b960b11b60448201526064016108d5565b60008681527fa6c468abe8a508ef1a979c41eda5df8049bf599d0e0eca56ade203bdd27ca677602052604090207fa6c468abe8a508ef1a979c41eda5df8049bf599d0e0eca56ade203bdd27ca67490610d6590610d5e8888612104565b8686612192565b50505050505050565b600061063a8261250c565b7fad4f1a7cd36a357eed365860a2e047f3b732c8ebdeb5c9c8c666bdc341cef48a610da2611e88565b81546001600160a01b03908116911614610deb5760405162461bcd60e51b815260206004820152600a60248201526937b7363c9037bbb732b960b11b60448201526064016108d5565b60008681527fa6c468abe8a508ef1a979c41eda5df8049bf599d0e0eca56ade203bdd27ca676602052604090207fa6c468abe8a508ef1a979c41eda5df8049bf599d0e0eca56ade203bdd27ca67490610d6590610d5e8888612104565b600061063a82612538565b600061063a8261244e565b7fad4f1a7cd36a357eed365860a2e047f3b732c8ebdeb5c9c8c666bdc341cef48a610e87611e88565b81546001600160a01b03908116911614610ed05760405162461bcd60e51b815260206004820152600a60248201526937b7363c9037bbb732b960b11b60448201526064016108d5565b8151835114610f475760405162461bcd60e51b815260206004820152602660248201527f4b657973206c656e677468206e6f7420657175616c20746f2076616c7565732060448201527f6c656e677468000000000000000000000000000000000000000000000000000060648201526084016108d5565b60005b83518110156107e757835160009063ffffffff1990869084908110610f7157610f71614882565b602002602001015116905060008663ffffffff1660001b8217905060007f7f23690cc80a596acdae0a51503f8066ffd79ab76fd5c929578309d2e2883b7782878681518110610fc257610fc2614882565b6020026020010151604051602401610fdb929190614898565b60408051601f198184030181529181526020820180516001600160e01b03166001600160e01b031990941693909317909252905190915060009030906110229084906148cd565b600060405180830381855af49150503d806000811461105d576040519150601f19603f3d011682016040523d82523d6000602084013e611062565b606091505b50509050806110b35760405162461bcd60e51b815260206004820152601360248201527f44656c656761746563616c6c206661696c65640000000000000000000000000060448201526064016108d5565b50505050806001019050610f4a565b6040516354f6127f60e01b81527f8e9490b81c08e89c50c70d11fc20336f38ac92de55246647f59fd7e4591a21a86004820152829060009030906354f6127f90602401600060405180830381865afa158015611122573d6000803e3d6000fd5b505050506040513d6000823e601f3d908101601f1916820160405261114a919081019061470d565b61115390614756565b905060008190036111645750505050565b61116d82611c3e565b6106f584846125bd565b60408051600180825281830190925260609160009190602080830190803683370190505090506380ac58cd60e01b816000815181106111b8576111b8614882565b6001600160e01b031990921660209283029190910190910152919050565b6040516354f6127f60e01b81527f8e9490b81c08e89c50c70d11fc20336f38ac92de55246647f59fd7e4591a21a86004820152849060009030906354f6127f90602401600060405180830381865afa158015611236573d6000803e3d6000fd5b505050506040513d6000823e601f3d908101601f1916820160405261125e919081019061470d565b61126790614756565b9050600081900361127857506107e7565b611280611e88565b6001600160a01b0316826001600160a01b0316146112a3576112a36107d7611e88565b610a81868686866126a0565b7fad4f1a7cd36a357eed365860a2e047f3b732c8ebdeb5c9c8c666bdc341cef48a6112d8611e88565b81546001600160a01b039081169116146113215760405162461bcd60e51b815260206004820152600a60248201526937b7363c9037bbb732b960b11b60448201526064016108d5565b60008581527fa6c468abe8a508ef1a979c41eda5df8049bf599d0e0eca56ade203bdd27ca677602052604090207fa6c468abe8a508ef1a979c41eda5df8049bf599d0e0eca56ade203bdd27ca67490610a8190610a798787612104565b60606113ac827f3c7bf052874fa81625121783266a03507bd2cd48b16e571c01a04e8dd3fb07a65b90612728565b6113b557600080fd5b6000306354f6127f6113c685612734565b6040518263ffffffff1660e01b81526004016113e491815260200190565b600060405180830381865afa158015611401573d6000803e3d6000fd5b505050506040513d6000823e601f3d908101601f19168201604052611429919081019061470d565b60405160200161143991906148cd565b60408051601f1981840301815291905290506000306354f6127f61145c866127dc565b6040518263ffffffff1660e01b815260040161147a91815260200190565b600060405180830381865afa158015611497573d6000803e3d6000fd5b505050506040513d6000823e601f3d908101601f191682016040526114bf919081019061470d565b6040516020016114cf91906148cd565b60408051601f19818403018152919052905060606000306354f6127f6114f48861280a565b6040518263ffffffff1660e01b815260040161151291815260200190565b600060405180830381865afa15801561152f573d6000803e3d6000fd5b505050506040513d6000823e601f3d908101601f19168201604052611557919081019061470d565b805190915015611584578060405160200161157291906148cd565b60405160208183030381529060405291505b61158d86612838565b15611623576040517f10fc69c400000000000000000000000000000000000000000000000000000000815230906310fc69c4906115d49089908890889088906004016148e9565b600060405180830381865afa1580156115f1573d6000803e3d6000fd5b505050506040513d6000823e601f3d908101601f19168201604052611619919081019061470d565b9695505050505050565b8051600003611665576040518060400160405280600281526020017f5b5d00000000000000000000000000000000000000000000000000000000000081525091505b7fa6c468abe8a508ef1a979c41eda5df8049bf599d0e0eca56ade203bdd27ca6746060806116938984612928565b80925081935050506000875187518751845186516116b19190614933565b6116bb9190614933565b6116c59190614933565b6116cf9190614933565b6116db906101f4614933565b6116e690600261494b565b9050466029036116f657506207a1205b6040805160608184010182529082018152600060209091018181529050611752816040518060400160405280601d81526020017f646174613a6170706c69636174696f6e2f6a736f6e3b6261736536342c000000815250612c8e565b611786818a8a86888c60405160200161176f95949392919061496a565b604051602081830303815290604052600080612ca7565b9a9950505050505050505050565b6040516354f6127f60e01b81527f0df5710b35b4d6cfd6ac818940e3899ccb3593e956705b9359e64121a7cf1119600482015260609060009030906354f6127f90602401600060405180830381865afa1580156117f5573d6000803e3d6000fd5b505050506040513d6000823e601f3d908101601f1916820160405261181d919081019061470d565b6040516354f6127f60e01b81527fdc581f49ae8f28cd1d1a3cd3c34db0ef4b00bbf862a3e1b09f70eb94d8f6f4fe600482015290915060009030906354f6127f90602401600060405180830381865afa15801561187e573d6000803e3d6000fd5b505050506040513d6000823e601f3d908101601f191682016040526118a6919081019061470d565b6040516354f6127f60e01b81527f1ddbddd5a0572ebf447f11dda4fd7809276eb72b1e6e3aef0e6ee8079b9bdc8f600482015290915060009030906354f6127f90602401600060405180830381865afa158015611907573d6000803e3d6000fd5b505050506040513d6000823e601f3d908101601f1916820160405261192f919081019061470d565b6040516354f6127f60e01b81527ffb5503d5a14dfde0bd197fa10ca68ca471c8be31a7d99c445f303515a52fb4db600482015290915060009030906354f6127f90602401600060405180830381865afa158015611990573d6000803e3d6000fd5b505050506040513d6000823e601f3d908101601f191682016040526119b8919081019061470d565b6040516354f6127f60e01b81527f1968666156cb021738323d0d9160ede4369b1c8e03c83fd358fd5236abe5fd5c600482015290915060009030906354f6127f90602401600060405180830381865afa158015611a19573d6000803e3d6000fd5b505050506040513d6000823e601f3d908101601f19168201604052611a41919081019061470d565b6040516354f6127f60e01b81527f28bedd7fdc85e46ac9767d8f7cba4b029ff428af0e9249f818881f4ad8377705600482015290915060009030906354f6127f90602401600060405180830381865afa158015611aa2573d6000803e3d6000fd5b505050506040513d6000823e601f3d908101601f19168201604052611aca919081019061470d565b9050611afe858785858589604051602001611aea96959493929190614aa9565b604051602081830303815290604052612db3565b604051602001611b0e9190614c30565b604051602081830303815290604052965050505050505090565b6001600160a01b0380831660009081527f3c7bf052874fa81625121783266a03507bd2cd48b16e571c01a04e8dd3fb07aa6020908152604080832093851683529290529081205460ff16610a95565b606061063a82612f51565b60007f3c7bf052874fa81625121783266a03507bd2cd48b16e571c01a04e8dd3fb07a6611baf8184612728565b611c215760405162461bcd60e51b815260206004820152602c60248201527f4552433732313a20617070726f76656420717565727920666f72206e6f6e657860448201527f697374656e7420746f6b656e000000000000000000000000000000000000000060648201526084016108d5565b60009283526003016020525060409020546001600160a01b031690565b6daaeb6d7670e522a718067333cd4e3b15611d29576040517fc61711340000000000000000000000000000000000000000000000000000000081523060048201526001600160a01b03821660248201526daaeb6d7670e522a718067333cd4e9063c617113490604401602060405180830381865afa158015611cc4573d6000803e3d6000fd5b505050506040513d601f19601f82011682018060405250810190611ce89190614c75565b611d29576040517fede71dcc0000000000000000000000000000000000000000000000000000000081526001600160a01b03821660048201526024016108d5565b50565b6000611d3782610e48565b9050806001600160a01b0316836001600160a01b031603611dc05760405162461bcd60e51b815260206004820152602160248201527f4552433732313a20617070726f76616c20746f2063757272656e74206f776e6560448201527f720000000000000000000000000000000000000000000000000000000000000060648201526084016108d5565b336001600160a01b0382161480611ddc5750611ddc8133611b28565b611e4e5760405162461bcd60e51b815260206004820152603860248201527f4552433732313a20617070726f76652063616c6c6572206973206e6f74206f7760448201527f6e6572206e6f7220617070726f76656420666f7220616c6c000000000000000060648201526084016108d5565b611e588383613033565b505050565b60006107057f3c7bf052874fa81625121783266a03507bd2cd48b16e571c01a04e8dd3fb07a66130d8565b6000303303611eea57600080368080601f01602080910402602001604051908101604052809392919081815260200183838082843760009201919091525050505036818101516001600160a01b0316935090915082611ee5573392505b505090565b503390565b611ef933826130e3565b611f6b5760405162461bcd60e51b815260206004820152603060248201527f4552433732313a207472616e736665722063616c6c6572206973206e6f74206f60448201527f776e6572206f7220617070726f7665640000000000000000000000000000000060648201526084016108d5565b611e5883838361321a565b6000611f806106fb565b905080611f94818c8c8c8c8c8c8b8b61340b565b6001600160a01b038516611fb357611fac3382611fc8565b5050611fbd565b610be08582611fc8565b505050505050505050565b6001600160a01b03821661201e5760405162461bcd60e51b815260206004820181905260248201527f4552433732313a206d696e7420746f20746865207a65726f206164647265737360448201526064016108d5565b7f3c7bf052874fa81625121783266a03507bd2cd48b16e571c01a04e8dd3fb07a66120498183612728565b156120965760405162461bcd60e51b815260206004820152601c60248201527f4552433732313a20746f6b656e20616c7265616479206d696e7465640000000060448201526064016108d5565b6001600160a01b038316600090815260028201602052604090206120ba9083613474565b506120c6818385613480565b5060405182906001600160a01b038516906000907fddf252ad1be2c89b69c2b068fc378daa952ba7f163c4a11628f55a4df523b3ef908290a4505050565b6040805160608101825260008082526020820181905291810191909152600061216284848080601f01602080910402602001604051908101604052809392919081815260200183838082843760009201919091525061349692505050565b604080516060810182526001600160a01b0390921682526000602083015261ffff85169082015291505092915050565b801561219c578084555b5060009081526001929092016020908152604092839020825181549284015193909401516001600160a01b0390941675ffffffffffffffffffffffffffffffffffffffffffff19909216919091177401000000000000000000000000000000000000000061ffff93841602177fffffffffffffffff0000ffffffffffffffffffffffffffffffffffffffffffff167601000000000000000000000000000000000000000000009290931691909102919091179055565b6000610a957f3c7bf052874fa81625121783266a03507bd2cd48b16e571c01a04e8dd3fb07a68484613514565b6000828152600282016020526040812054606091829167ffffffffffffffff8111156122ad576122ad61438e565b6040519080825280602002602001820160405280156122d6578160200160208202803683370190505b5060008681526003860160205260408120549192509067ffffffffffffffff8111156123045761230461438e565b60405190808252806020026020018201604052801561232d578160200160208202803683370190505b50905060005b60008781526002870160205260409020548110156123aa57600087815260028701602090815260408083208484526001019091529020546001600160a01b031661239857600183828151811061238b5761238b614882565b6020026020010181815250505b806123a281614869565b915050612333565b5060005b600087815260038701602052604090205481101561242557600087815260038701602090815260408083208484526001019091529020546001600160a01b031661241357600182828151811061240657612406614882565b6020026020010181815250505b8061241d81614869565b9150506123ae565b5090925090505b9250929050565b611e58838383604051806020016040528060008152506111d6565b60006001600160a01b0382166124cc5760405162461bcd60e51b815260206004820152602a60248201527f4552433732313a2062616c616e636520717565727920666f7220746865207a6560448201527f726f20616464726573730000000000000000000000000000000000000000000060648201526084016108d5565b6001600160a01b03821660009081527f3c7bf052874fa81625121783266a03507bd2cd48b16e571c01a04e8dd3fb07a86020526040902061063a90613538565b600061063a7f3c7bf052874fa81625121783266a03507bd2cd48b16e571c01a04e8dd3fb07a683613542565b6000806125657f3c7bf052874fa81625121783266a03507bd2cd48b16e571c01a04e8dd3fb07a684613558565b90506001600160a01b03811661063a5760405162461bcd60e51b815260206004820152601560248201527f4552433732313a20696e76616c6964206f776e6572000000000000000000000060448201526064016108d5565b336001600160a01b038316036126155760405162461bcd60e51b815260206004820152601960248201527f4552433732313a20617070726f766520746f2063616c6c65720000000000000060448201526064016108d5565b3360008181527f3c7bf052874fa81625121783266a03507bd2cd48b16e571c01a04e8dd3fb07aa602090815260408083206001600160a01b03871680855290835292819020805460ff191686151590811790915590519081529192917f17307eab39ab6107e8899845ad3d59bd9653f200f220920489ca2b5937696c31910160405180910390a35050565b6126aa33836130e3565b61271c5760405162461bcd60e51b815260206004820152603060248201527f4552433732313a207472616e736665722063616c6c6572206973206e6f74206f60448201527f776e6572206f7220617070726f7665640000000000000000000000000000000060648201526084016108d5565b6106f584848484613564565b6000610a9583836135ed565b60007f872fc9bd15081212707bc34c1e14d6140271fd774208e7bc1dd2dcbd6a270afd816127628460601b90565b6040805175ffffffffffffffffffffffffffffffffffffffffffff1990941660208501527fffff000000000000000000000000000000000000000000000000000000000000909216602a8401526bffffffffffffffffffffffff1916602c8301520160405160208183030381529060405261063a90614756565b60007f6df0c52057a5bbb9dc368a96dae75ac7fad3182b144af1b6d806a2cbc3b675cf816127628460601b90565b60007f5a300f1a1e842692999a38145acc82d2a7a7bc782a72cfe7794163f78e4bdd18816127628460601b90565b6000806000306001600160a01b03168460405160240161285a91815260200190565b60408051601f19818403018152918152602080830180516001600160e01b03167f6afb21ab0000000000000000000000000000000000000000000000000000000017905290516128ad9291309101614c92565b60408051601f19818403018152908290526128c7916148cd565b600060405180830381855afa9150503d8060008114612902576040519150601f19603f3d011682016040523d82523d6000602084013e612907565b606091505b5091509150818015612920575061291d81614756565b15155b949350505050565b600082815260208290526040902054606090819060ff1680600182600381111561295457612954614cc9565b03612a1f57600086815260028601602052604090205415612a1a5760008681526002860160205260409020546129ad9061299090615dc061494b565b604080518281016060018252910181526000602090910190815290565b935060005b600087815260028701602052604090205461ffff82161015612a18576000878152600287016020908152604080832061ffff85168452600101909152812054612a03906001600160a01b0316613605565b9050612a0f8682613615565b506001016129b2565b505b612af1565b6002826003811115612a3357612a33614cc9565b1480612a5057506000826003811115612a4e57612a4e614cc9565b145b15612af157600086815260058601602052604090208054612a709061477a565b80601f0160208091040260200160405190810160405280929190818152602001828054612a9c9061477a565b8015612ae95780601f10612abe57610100808354040283529160200191612ae9565b820191906000526020600020905b815481529060010190602001808311612acc57829003601f168201915b505050505093505b6001816003811115612b0557612b05614cc9565b03612bb357600086815260038601602052604090205415612bae576000868152600386016020526040902054612b419061299090615dc061494b565b925060005b600087815260038701602052604090205461ffff82161015612bac576000878152600387016020908152604080832061ffff85168452600101909152812054612b97906001600160a01b0316613605565b9050612ba38582613615565b50600101612b46565b505b612c85565b6002816003811115612bc757612bc7614cc9565b1480612be457506000826003811115612be257612be2614cc9565b145b15612c8557600086815260068601602052604090208054612c049061477a565b80601f0160208091040260200160405190810160405280929190818152602001828054612c309061477a565b8015612c7d5780601f10612c5257610100808354040283529160200191612c7d565b820191906000526020600020905b815481529060010190602001808311612c6057829003601f168201915b505050505092505b50509250929050565b612c9982825161364b565b612ca38282613615565b5050565b82516000819003612cb857506106f5565b60036002828101829004901b9082068315612cda576001811481151501820391505b612ce4878361364b565b6040517f4142434445464748494a4b4c4d4e4f505152535455565758595a616263646566601f526102308615027f6768696a6b6c6d6e6f707172737475767778797a303132333435363738392d5f03603f52875160208901018488015b6003890198508851603f8160121c16518353603f81600c1c16516001840153603f8160061c16516002840153603f811651600384015350600482019150808910612d41575085612da057603d831515820353603d6001841460011b8203535b5087519092018752506040525050505050565b60608151600003612dd257505060408051602081019091526000815290565b6000604051806060016040528060408152602001614f776040913990506000600384516002612e019190614933565b612e0b9190614cf5565b612e1690600461494b565b90506000612e25826020614933565b67ffffffffffffffff811115612e3d57612e3d61438e565b6040519080825280601f01601f191660200182016040528015612e67576020820181803683370190505b509050818152600183018586518101602084015b81831015612ed55760039283018051603f601282901c811687015160f890811b8552600c83901c8216880151811b6001860152600683901c8216880151811b60028601529116860151901b93820193909352600401612e7b565b600389510660018114612eef5760028114612f1b57612f43565b7f3d3d000000000000000000000000000000000000000000000000000000000000600119830152612f43565b7f3d000000000000000000000000000000000000000000000000000000000000006000198301525b509398975050505050505050565b60606000612f5e836136e6565b905060008167ffffffffffffffff811115612f7b57612f7b61438e565b604051908082528060200260200182016040528015612fa4578160200160208202803683370190505b509050615dc060005b83811015612fe55781838281518110612fc857612fc8614882565b602090810291909101015280612fdd81614869565b915050612fad565b50612ff2615dc086614d09565b15610c8757613003615dc086614d09565b8261300f600186614d1d565b8151811061301f5761301f614882565b602002602001018181525050509392505050565b60008181527f3c7bf052874fa81625121783266a03507bd2cd48b16e571c01a04e8dd3fb07a96020526040902080547fffffffffffffffffffffffff0000000000000000000000000000000000000000166001600160a01b038416908117909155819061309f82612538565b6001600160a01b03167f8c5be1e5ebec7d5bd14f71427d1e84f3dd0314c0f7b2291e5b200ac8c7c3b92560405160405180910390a45050565b600061063a82613538565b600061310f827f3c7bf052874fa81625121783266a03507bd2cd48b16e571c01a04e8dd3fb07a66113a6565b6131815760405162461bcd60e51b815260206004820152602360248201527f4552433732313a20717565727920666f72206e6f6e6578697374656e7420746f60448201527f6b656e000000000000000000000000000000000000000000000000000000000060648201526084016108d5565b600061318c83612538565b9050806001600160a01b0316846001600160a01b031614806131c75750836001600160a01b03166131bc84611b82565b6001600160a01b0316145b8061292057506001600160a01b0380821660009081527f3c7bf052874fa81625121783266a03507bd2cd48b16e571c01a04e8dd3fb07aa602090815260408083209388168352929052205460ff16612920565b826001600160a01b031661322d82612538565b6001600160a01b0316146132a95760405162461bcd60e51b815260206004820152602960248201527f4552433732313a207472616e73666572206f6620746f6b656e2074686174206960448201527f73206e6f74206f776e000000000000000000000000000000000000000000000060648201526084016108d5565b6001600160a01b0382166133245760405162461bcd60e51b8152602060048201526024808201527f4552433732313a207472616e7366657220746f20746865207a65726f2061646460448201527f726573730000000000000000000000000000000000000000000000000000000060648201526084016108d5565b61332f600082613033565b6001600160a01b03831660009081527f3c7bf052874fa81625121783266a03507bd2cd48b16e571c01a04e8dd3fb07a8602052604090207f3c7bf052874fa81625121783266a03507bd2cd48b16e571c01a04e8dd3fb07a6906133929083613712565b506001600160a01b038316600090815260028201602052604090206133b79083613474565b506133c3818385613480565b5081836001600160a01b0316856001600160a01b03167fddf252ad1be2c89b69c2b068fc378daa952ba7f163c4a11628f55a4df523b3ef60405160405180910390a450505050565b7fa6c468abe8a508ef1a979c41eda5df8049bf599d0e0eca56ade203bdd27ca6746000613437846136e6565b90506000613444846136e6565b90506134568c848d8d8b60008861371e565b6134668c848b8b8a6000876137b6565b505050505050505050505050565b6000610a95838361383c565b600061292084846001600160a01b03851661388b565b6000806134c1836040516020016134ad9190614d34565b60405160208183030381529060405261392e565b90508051602082016000f091506001600160a01b03821661350e576040517f08d4abb600000000000000000000000000000000000000000000000000000000815260040160405180910390fd5b50919050565b6001600160a01b03821660009081526002840160205260408120612920908361395a565b600061063a825490565b60008061354f8484613966565b50949350505050565b6000610a958383613982565b61356f84848461321a565b61357b84848484613a19565b6106f55760405162461bcd60e51b815260206004820152603260248201527f4552433732313a207472616e7366657220746f206e6f6e20455243373231526560448201527f63656976657220696d706c656d656e746572000000000000000000000000000060648201526084016108d5565b60008181526001830160205260408120541515610a95565b606061063a826001600019613b03565b8051602082019150808201602084510184015b81841015613640578351815260209384019301613628565b505082510190915250565b600061365d83601f190151603f190190565b9050600082845161366e9190614933565b9050808210156106f55760405162461bcd60e51b815260206004820152602760248201527f44796e616d69634275666665723a20417070656e64696e67206f7574206f662060448201527f626f756e64732e0000000000000000000000000000000000000000000000000060648201526084016108d5565b6000806136f5615dc084614cf5565b9050613703615dc084614d09565b1561063a578061292081614869565b6000610a958383613bd1565b6000878152602087905260409020805484919060ff1916600183600381111561374957613749614cc9565b0217905550600183600381111561376257613762614cc9565b03613791576000878152600287016020526040902061378c906137858787612104565b8484612192565b610d65565b600087815260058701602052604090206137ac858783614da0565b5050505050505050565b6000878152600180880160205260409091208054859260ff19909116908360038111156137e5576137e5614cc9565b021790555060018360038111156137fe576137fe614cc9565b03613821576000878152600387016020526040902061378c906137858787612104565b600087815260068701602052604090206137ac858783614da0565b60008181526001830160205260408120546138835750815460018181018455600084815260208082209093018490558454848252828601909352604090209190915561063a565b50600061063a565b60008281526001840160205260408120548082036138f2575050604080518082018252838152602080820184815286546001818101895560008981528481209551600290930290950191825591519082015586548684528188019092529290912055610a95565b82856138ff600184614d1d565b8154811061390f5761390f614882565b9060005260206000209060020201600101819055506000915050610a95565b6060815182604051602001613944929190614e60565b6040516020818303038152906040529050919050565b6000610a958383613cbc565b60008080806139758686613d42565b9097909650945050505050565b60008181526001830160205260408120548082036139e25760405162461bcd60e51b815260206004820152601e60248201527f456e756d657261626c654d61703a206e6f6e6578697374656e74206b6579000060448201526064016108d5565b836139ee600183614d1d565b815481106139fe576139fe614882565b90600052602060002090600202016001015491505092915050565b60006001600160a01b0384163b613a3257506001612920565b6000613ab363150b7a0260e01b33888787604051602401613a569493929190614edf565b604051602081830303815290604052906001600160e01b0319166020820180516001600160e01b038381831617835250505050604051806060016040528060328152602001614f45603291396001600160a01b0388169190613ddf565b9050600081806020019051810190613acb9190614f11565b6001600160e01b0319167f150b7a02000000000000000000000000000000000000000000000000000000001492505050949350505050565b6060833b6000819003613b26575050604080516020810190915260008152610a95565b80841115613b44575050604080516020810190915260008152610a95565b83831015613b8f576040517f2c4a89fa0000000000000000000000000000000000000000000000000000000081526004810182905260248101859052604481018490526064016108d5565b8383038482036000828210613ba45782613ba6565b815b60408051603f8301601f19168101909152818152955090508087602087018a3c505050509392505050565b60008181526001830160205260408120548015613cb2576000613bf5600183614d1d565b85549091506000908690613c0b90600190614d1d565b81548110613c1b57613c1b614882565b9060005260206000200154905080866000018381548110613c3e57613c3e614882565b600091825260209091200155613c55826001614933565b60008281526001880160205260409020558554869080613c7757613c77614f2e565b60019003818190600052602060002001600090559055856001016000868152602001908152602001600020600090556001935050505061063a565b600091505061063a565b81546000908210613d1a5760405162461bcd60e51b815260206004820152602260248201527f456e756d657261626c655365743a20696e646578206f7574206f6620626f756e604482015261647360f01b60648201526084016108d5565b826000018281548110613d2f57613d2f614882565b9060005260206000200154905092915050565b815460009081908310613da25760405162461bcd60e51b815260206004820152602260248201527f456e756d657261626c654d61703a20696e646578206f7574206f6620626f756e604482015261647360f01b60648201526084016108d5565b6000846000018481548110613db957613db9614882565b906000526020600020906002020190508060000154816001015492509250509250929050565b606061292084846000856060843b613e5f5760405162461bcd60e51b815260206004820152602b60248201527f416464726573735574696c733a2066756e6374696f6e2063616c6c20746f206e60448201527f6f6e2d636f6e747261637400000000000000000000000000000000000000000060648201526084016108d5565b600080866001600160a01b03168587604051613e7b91906148cd565b60006040518083038185875af1925050503d8060008114613eb8576040519150601f19603f3d011682016040523d82523d6000602084013e613ebd565b606091505b50915091508115613ed15791506129209050565b805115613ee15780518082602001fd5b8360405162461bcd60e51b81526004016108d59190614021565b6001600160e01b031981168114611d2957600080fd5b600060208284031215613f2357600080fd5b8135610a9581613efb565b600060208284031215613f4057600080fd5b5035919050565b80356001600160a01b0381168114613f5e57600080fd5b919050565b60008060408385031215613f7657600080fd5b613f7f83613f47565b946020939093013593505050565b600080600060608486031215613fa257600080fd5b613fab84613f47565b9250613fb960208501613f47565b9150604084013590509250925092565b60005b83811015613fe4578181015183820152602001613fcc565b838111156106f55750506000910152565b6000815180845261400d816020860160208601613fc9565b601f01601f19169290920160200192915050565b602081526000610a956020830184613ff5565b60008083601f84011261404657600080fd5b50813567ffffffffffffffff81111561405e57600080fd5b60208301915083602082850101111561242c57600080fd5b803560048110613f5e57600080fd5b600080600080600080600080600060e08a8c0312156140a357600080fd5b893567ffffffffffffffff808211156140bb57600080fd5b6140c78d838e01614034565b909b50995060208c01359150808211156140e057600080fd5b506140ed8c828d01614034565b9098509650614100905060408b01614076565b945061410e60608b01614076565b935061411c60808b01613f47565b925060a08a0135915060c08a013590509295985092959850929598565b803563ffffffff81168114613f5e57600080fd5b6000806040838503121561416057600080fd5b61416983614139565b915061417760208401613f47565b90509250929050565b6000806000806060858703121561419657600080fd5b84359350602085013567ffffffffffffffff8111156141b457600080fd5b6141c087828801614034565b9598909750949560400135949350505050565b600081518084526020808501945080840160005b83811015614203578151875295820195908201906001016141e7565b509495945050505050565b60408152600061422160408301856141d3565b828103602084015261423381856141d3565b95945050505050565b6000806000806000806000806000806101008b8d03121561425c57600080fd5b8a3567ffffffffffffffff8082111561427457600080fd5b6142808e838f01614034565b909c509a5060208d013591508082111561429957600080fd5b506142a68d828e01614034565b90995097506142b9905060408c01614076565b95506142c760608c01614076565b94506142d560808c01614139565b93506142e360a08c01613f47565b925060c08b0135915060e08b013590509295989b9194979a5092959850565b60006020828403121561431457600080fd5b610a9582613f47565b602081526000610a9560208301846141d3565b60008060008060006080868803121561434857600080fd5b85359450602086013567ffffffffffffffff81111561436657600080fd5b61437288828901614034565b9699909850959660408101359660609091013595509350505050565b634e487b7160e01b600052604160045260246000fd5b604051601f8201601f1916810167ffffffffffffffff811182821017156143cd576143cd61438e565b604052919050565b600067ffffffffffffffff8211156143ef576143ef61438e565b5060051b60200190565b600067ffffffffffffffff8211156144135761441361438e565b50601f01601f191660200190565b600082601f83011261443257600080fd5b8135614445614440826143f9565b6143a4565b81815284602083860101111561445a57600080fd5b816020850160208301376000918101602001919091529392505050565b600082601f83011261448857600080fd5b81356020614498614440836143d5565b82815260059290921b840181019181810190868411156144b757600080fd5b8286015b848110156144f757803567ffffffffffffffff8111156144db5760008081fd5b6144e98986838b0101614421565b8452509183019183016144bb565b509695505050505050565b60008060006060848603121561451757600080fd5b8335925060208085013567ffffffffffffffff8082111561453757600080fd5b818701915087601f83011261454b57600080fd5b8135614559614440826143d5565b81815260059190911b8301840190848101908a83111561457857600080fd5b938501935b828510156145965784358252938501939085019061457d565b9650505060408701359250808311156145ae57600080fd5b50506145bc86828701614477565b9150509250925092565b8015158114611d2957600080fd5b600080604083850312156145e757600080fd5b6145f083613f47565b91506020830135614600816145c6565b809150509250929050565b6020808252825182820181905260009190848201906040850190845b8181101561464d5783516001600160e01b03191683529284019291840191600101614627565b50909695505050505050565b6000806000806080858703121561466f57600080fd5b61467885613f47565b935061468660208601613f47565b925060408501359150606085013567ffffffffffffffff8111156146a957600080fd5b6146b587828801614421565b91505092959194509250565b600080604083850312156146d457600080fd5b61416983613f47565b60006146eb614440846143f9565b90508281528383830111156146ff57600080fd5b610a95836020830184613fc9565b60006020828403121561471f57600080fd5b815167ffffffffffffffff81111561473657600080fd5b8201601f8101841361474757600080fd5b612920848251602084016146dd565b8051602080830151919081101561350e5760001960209190910360031b1b16919050565b600181811c9082168061478e57607f821691505b60208210810361350e57634e487b7160e01b600052602260045260246000fd5b7f646174613a696d6167652f6769663b6261736536342c00000000000000000000815260006016600084546147e28161477a565b600182811680156147fa576001811461481357614846565b60ff198416888701528215158302880186019450614846565b8860005260208060002060005b8581101561483b5781548b82018a0152908401908201614820565b505050858389010194505b5092979650505050505050565b634e487b7160e01b600052601160045260246000fd5b60006001820161487b5761487b614853565b5060010190565b634e487b7160e01b600052603260045260246000fd5b8281526040602082015260006129206040830184613ff5565b600081516148c3818560208601613fc9565b9290920192915050565b600082516148df818460208701613fc9565b9190910192915050565b8481526080602082015260006149026080830186613ff5565b82810360408401526149148186613ff5565b905082810360608401526149288185613ff5565b979650505050505050565b6000821982111561494657614946614853565b500190565b600081600019048311821515161561496557614965614853565b500290565b693d913730b6b2911d101160b11b81526000865161498f81600a850160208b01613fc9565b7f222c20226465736372697074696f6e223a202200000000000000000000000000600a9184019182015286516149cc81601d840160208b01613fc9565b7f222c2022616e696d6174696f6e5f75726c223a20220000000000000000000000601d92909101918201528551614a0a816032840160208a01613fc9565b7f222c22696d616765223a20220000000000000000000000000000000000000000603292909101918201528451614a4881603e840160208901613fc9565b7f222c2261747472696275746573223a2000000000000000000000000000000000603e92909101918201528351614a8681604e840160208801613fc9565b614a9c604e82840101607d60f81b815260010190565b9998505050505050505050565b693d913730b6b2911d101160b11b815260008751614ace81600a850160208c01613fc9565b7f222c20226465736372697074696f6e223a202200000000000000000000000000600a918401918201528751614b0b81601d840160208c01613fc9565b7f222c202265787465726e616c5f6c696e6b223a20220000000000000000000000601d92909101918201528651614b49816032840160208b01613fc9565b7f222c202273656c6c65725f6665655f62617369735f706f696e7473223a202200603292909101918201528551614b87816051840160208a01613fc9565b7f222c20226665655f726563697069656e74223a2022000000000000000000000060519290910191820152614a9c614c23614bfa614bf4614bcb606686018a6148b1565b7f222c2022696d616765223a2022000000000000000000000000000000000000008152600d0190565b876148b1565b7f2200000000000000000000000000000000000000000000000000000000000000815260010190565b607d60f81b815260010190565b7f646174613a6170706c69636174696f6e2f6a736f6e3b6261736536342c000000815260008251614c6881601d850160208701613fc9565b91909101601d0192915050565b600060208284031215614c8757600080fd5b8151610a95816145c6565b60008351614ca4818460208801613fc9565b60609390931b6bffffffffffffffffffffffff19169190920190815260140192915050565b634e487b7160e01b600052602160045260246000fd5b634e487b7160e01b600052601260045260246000fd5b600082614d0457614d04614cdf565b500490565b600082614d1857614d18614cdf565b500690565b600082821015614d2f57614d2f614853565b500390565b6000815260008251614d4d816001850160208701613fc9565b9190910160010192915050565b601f821115611e5857600081815260208120601f850160051c81016020861015614d815750805b601f850160051c820191505b81811015610a8157828155600101614d8d565b67ffffffffffffffff831115614db857614db861438e565b614dcc83614dc6835461477a565b83614d5a565b6000601f841160018114614e005760008515614de85750838201355b600019600387901b1c1916600186901b1783556107e7565b600083815260209020601f19861690835b82811015614e315786850135825560209485019460019092019101614e11565b5086821015614e4e5760001960f88860031b161c19848701351681555b505060018560011b0183555050505050565b7f630000000000000000000000000000000000000000000000000000000000000081526001600160e01b03198360e01b1660018201527f80600e6000396000f30000000000000000000000000000000000000000000000600582015260008251614ed181600e850160208701613fc9565b91909101600e019392505050565b60006001600160a01b038087168352808616602084015250836040830152608060608301526116196080830184613ff5565b600060208284031215614f2357600080fd5b8151610a9581613efb565b634e487b7160e01b600052603160045260246000fdfe4552433732313a207472616e7366657220746f206e6f6e20455243373231526563656976657220696d706c656d656e7465724142434445464748494a4b4c4d4e4f505152535455565758595a6162636465666768696a6b6c6d6e6f707172737475767778797a303132333435363738392b2fa264697066735822122021402ae942e859782215b33d0706f9b928804348609e5a3d0c051aca31cbac0c64736f6c634300080f0033",
  "linkReferences": {},
  "deployedLinkReferences": {}
}