{
  "_format": "hh-sol-artifact-1",
  "contractName": "RoyaltyFacet",
  "sourceName": "contracts/facets/RoyaltyFacet.sol",
  "abi": [
    {
      "inputs": [],
      "name": "getDefaultRoyalty",
      "outputs": [
        {
          "internalType": "uint16",
          "name": "",
          "type": "uint16"
        },
        {
          "internalType": "address",
          "name": "",
          "type": "address"
        }
      ],
      "stateMutability": "view",
      "type": "function"
    },
    {
      "inputs": [
        {
          "internalType": "uint256",
          "name": "tokenId",
          "type": "uint256"
        },
        {
          "internalType": "uint256",
          "name": "salePrice",
          "type": "uint256"
        }
      ],
      "name": "royaltyInfo",
      "outputs": [
        {
          "internalType": "address",
          "name": "",
          "type": "address"
        },
        {
          "internalType": "uint256",
          "name": "",
          "type": "uint256"
        }
      ],
      "stateMutability": "view",
      "type": "function"
    },
    {
      "inputs": [
        {
          "internalType": "uint16",
          "name": "defaultRoyaltyBPS",
          "type": "uint16"
        },
        {
          "internalType": "address",
          "name": "receiver",
          "type": "address"
        }
      ],
      "name": "setDefaultRoyalty",
      "outputs": [],
      "stateMutability": "nonpayable",
      "type": "function"
    },
    {
      "inputs": [
        {
          "internalType": "uint256",
          "name": "tokenId",
          "type": "uint256"
        },
        {
          "internalType": "uint16",
          "name": "bps",
          "type": "uint16"
        },
        {
          "internalType": "address",
          "name": "receiver",
          "type": "address"
        }
      ],
      "name": "setRoyalty",
      "outputs": [],
      "stateMutability": "nonpayable",
      "type": "function"
    },
    {
      "inputs": [
        {
          "internalType": "bytes4",
          "name": "interfaceId",
          "type": "bytes4"
        }
      ],
      "name": "supportsInterface",
      "outputs": [
        {
          "internalType": "bool",
          "name": "",
          "type": "bool"
        }
      ],
      "stateMutability": "pure",
      "type": "function"
    },
    {
      "inputs": [],
      "name": "supportsInterfaces",
      "outputs": [
        {
          "internalType": "bytes4[]",
          "name": "",
          "type": "bytes4[]"
        }
      ],
      "stateMutability": "pure",
      "type": "function"
    }
  ],
  "bytecode": "0x608060405234801561001057600080fd5b506105e2806100206000396000f3fe608060405234801561001057600080fd5b50600436106100725760003560e01c80638cabe05a116100505780638cabe05a1461017557806393081bb3146101db578063a5954dd71461027f57600080fd5b806301ffc9a71461007757806305b4d1d6146100b05780632a55205a14610143575b600080fd5b61009b610085366004610409565b6001600160e01b03191663152a902d60e11b1490565b60405190151581526020015b60405180910390f35b6101416100be366004610468565b7ff298352fd56f58214bf2245c2b202523f72fca3199077ce992640958228b2820805461ffff191661ffff93909316929092179091557ff298352fd56f58214bf2245c2b202523f72fca3199077ce992640958228b2822805473ffffffffffffffffffffffffffffffffffffffff19166001600160a01b03909216919091179055565b005b61015661015136600461049b565b610294565b604080516001600160a01b0390931683526020830191909152016100a7565b7ff298352fd56f58214bf2245c2b202523f72fca3199077ce992640958228b2820547ff298352fd56f58214bf2245c2b202523f72fca3199077ce992640958228b2822546040805161ffff90931683526001600160a01b039091166020830152016100a7565b6101416101e93660046104bd565b60009283527ff298352fd56f58214bf2245c2b202523f72fca3199077ce992640958228b281f60209081526040808520805461ffff191661ffff95909516949094179093557ff298352fd56f58214bf2245c2b202523f72fca3199077ce992640958228b282190529120805473ffffffffffffffffffffffffffffffffffffffff19166001600160a01b03909216919091179055565b6102876102ac565b6040516100a791906104f9565b6000806102a1848461030b565b915091509250929050565b604080516001808252818301909252606091600091906020808301908036833701905050905063152a902d60e11b816000815181106102ed576102ed610547565b6001600160e01b031990921660209283029190910190910152919050565b60008060006103198561034b565b61ffff16905061032885610399565b612710610335868461055d565b61033f919061058a565b92509250509250929050565b60008181527ff298352fd56f58214bf2245c2b202523f72fca3199077ce992640958228b281f6020819052604082205461ffff169182900361039357600181015461ffff1691505b50919050565b60008181527ff298352fd56f58214bf2245c2b202523f72fca3199077ce992640958228b282160205260409020546001600160a01b03167ff298352fd56f58214bf2245c2b202523f72fca3199077ce992640958228b281f8161039357600301546001600160a01b031692915050565b60006020828403121561041b57600080fd5b81356001600160e01b03198116811461043357600080fd5b9392505050565b803561ffff8116811461044c57600080fd5b919050565b80356001600160a01b038116811461044c57600080fd5b6000806040838503121561047b57600080fd5b6104848361043a565b915061049260208401610451565b90509250929050565b600080604083850312156104ae57600080fd5b50508035926020909101359150565b6000806000606084860312156104d257600080fd5b833592506104e26020850161043a565b91506104f060408501610451565b90509250925092565b6020808252825182820181905260009190848201906040850190845b8181101561053b5783516001600160e01b03191683529284019291840191600101610515565b50909695505050505050565b634e487b7160e01b600052603260045260246000fd5b600081600019048311821515161561058557634e487b7160e01b600052601160045260246000fd5b500290565b6000826105a757634e487b7160e01b600052601260045260246000fd5b50049056fea26469706673582212205162727e728e177a79c7f125d7442f02c50c46f5c4bf3310356c51872a26ee4e64736f6c634300080f0033",
  "linkReferences": {},
  "deployedLinkReferences": {}
}