{
  "_format": "hh-sol-artifact-1",
  "contractName": "FileStoreFrontend",
  "sourceName": "contracts/store/fileStore/FileStoreFrontend.sol",
  "abi": [
    {
      "inputs": [
        {
          "internalType": "uint256",
          "name": "_size",
          "type": "uint256"
        },
        {
          "internalType": "uint256",
          "name": "_start",
          "type": "uint256"
        },
        {
          "internalType": "uint256",
          "name": "_end",
          "type": "uint256"
        }
      ],
      "name": "InvalidCodeAtRange",
      "type": "error"
    },
    {
      "inputs": [
        {
          "internalType": "contract IContentStore",
          "name": "contentStore",
          "type": "address"
        },
        {
          "internalType": "bytes32",
          "name": "checksum",
          "type": "bytes32"
        }
      ],
      "name": "getContent",
      "outputs": [
        {
          "internalType": "bytes",
          "name": "content",
          "type": "bytes"
        }
      ],
      "stateMutability": "view",
      "type": "function"
    },
    {
      "inputs": [
        {
          "internalType": "contract IFileStore",
          "name": "fileStore",
          "type": "address"
        },
        {
          "internalType": "string",
          "name": "filename",
          "type": "string"
        }
      ],
      "name": "readFile",
      "outputs": [
        {
          "internalType": "string",
          "name": "contents",
          "type": "string"
        }
      ],
      "stateMutability": "view",
      "type": "function"
    }
  ],
  "bytecode": "0x608060405234801561001057600080fd5b50610633806100206000396000f3fe608060405234801561001057600080fd5b50600436106100365760003560e01c8063251e406a1461003b57806335fae7a614610064575b600080fd5b61004e610049366004610315565b610077565b60405161005b919061038e565b60405180910390f35b61004e61007236600461042a565b610119565b6040517f4641dce6000000000000000000000000000000000000000000000000000000008152600481018290526060906101129073ffffffffffffffffffffffffffffffffffffffff851690634641dce690602401602060405180830381865afa1580156100e9573d6000803e3d6000fd5b505050506040513d601f19601f8201168201806040525081019061010d91906104d2565b6101a1565b9392505050565b60606101128373ffffffffffffffffffffffffffffffffffffffff1663e0876aa8846040518263ffffffff1660e01b8152600401610157919061038e565b600060405180830381865afa158015610174573d6000803e3d6000fd5b505050506040513d6000823e601f3d908101601f1916820160405261019c91908101906104ef565b6101b7565b60606101b182600160001961021e565b92915050565b60208082015180516040519260008080805b858110156101ff57602081026020018701519250602083015191506001823b039350836001868a01843c938301936001016101c9565b50505050602081038452601f19601f8201168401604052505050919050565b6060833b6000819003610241575050604080516020810190915260008152610112565b8084111561025f575050604080516020810190915260008152610112565b838310156102ae576040517f2c4a89fa00000000000000000000000000000000000000000000000000000000815260048101829052602481018590526044810184905260640160405180910390fd5b83830384820360008282106102c357826102c5565b815b60408051603f8301601f19168101909152818152955090508087602087018a3c505050509392505050565b73ffffffffffffffffffffffffffffffffffffffff8116811461031257600080fd5b50565b6000806040838503121561032857600080fd5b8235610333816102f0565b946020939093013593505050565b6000815180845260005b818110156103675760208185018101518683018201520161034b565b81811115610379576000602083870101525b50601f01601f19169290920160200192915050565b6020815260006101126020830184610341565b7f4e487b7100000000000000000000000000000000000000000000000000000000600052604160045260246000fd5b6040805190810167ffffffffffffffff811182821017156103f3576103f36103a1565b60405290565b604051601f8201601f1916810167ffffffffffffffff81118282101715610422576104226103a1565b604052919050565b6000806040838503121561043d57600080fd5b8235610448816102f0565b915060208381013567ffffffffffffffff8082111561046657600080fd5b818601915086601f83011261047a57600080fd5b81358181111561048c5761048c6103a1565b61049e601f8201601f191685016103f9565b915080825287848285010111156104b457600080fd5b80848401858401376000848284010152508093505050509250929050565b6000602082840312156104e457600080fd5b8151610112816102f0565b6000602080838503121561050257600080fd5b825167ffffffffffffffff8082111561051a57600080fd5b8185019150604080838803121561053057600080fd5b6105386103d0565b83518152848401518381111561054d57600080fd5b80850194505087601f85011261056257600080fd5b835183811115610574576105746103a1565b610582868260051b016103f9565b818152868101945060069190911b8501860190898211156105a257600080fd5b948601945b818610156105eb5783868b0312156105bf5760008081fd5b6105c76103d0565b86518152878701516105d8816102f0565b81890152855294830194938601936105a7565b9582019590955297965050505050505056fea2646970667358221220d7696bf2e0a30c20af0297a2376737e41fce350efbd2c17a9fe8eebdf998ac8c64736f6c634300080f0033",
  "linkReferences": {},
  "deployedLinkReferences": {}
}