{
  "_format": "hh-sol-artifact-1",
  "contractName": "ExampleLottoFacet",
  "sourceName": "contracts/facets/ExampleLottoFacet.sol",
  "abi": [
    {
      "inputs": [
        {
          "internalType": "address",
          "name": "winner",
          "type": "address"
        }
      ],
      "name": "luck",
      "outputs": [],
      "stateMutability": "nonpayable",
      "type": "function"
    }
  ],
  "bytecode": "0x608060405234801561001057600080fd5b506101f2806100206000396000f3fe608060405234801561001057600080fd5b506004361061002b5760003560e01c8063904c45b514610030575b600080fd5b61004361003e366004610158565b610045565b005b60408051434060208083018290528351808403820181528385018552805191012060ff6060808501919091528451808503909101815260809093019093527fa433eb988f1f68006aadf0e740a5ea5b034a2325814803cfc47e2fbad0883ae49290916000906100b390610195565b8216036101525760405173ffffffffffffffffffffffffffffffffffffffff851690600090670de0b6b3a76400009082818181858883f19350505050158015610100573d6000803e3d6000fd5b5082546001810184556000848152602090200180547fffffffffffffffffffffffff00000000000000000000000000000000000000001673ffffffffffffffffffffffffffffffffffffffff86161790555b50505050565b60006020828403121561016a57600080fd5b813573ffffffffffffffffffffffffffffffffffffffff8116811461018e57600080fd5b9392505050565b805160208083015191908110156101b6576000198160200360031b1b821691505b5091905056fea26469706673582212204ce86502dab85d298a464442bc6b41b7516df99c0b0cd030297352857224b28164736f6c634300080f0033",
  "linkReferences": {},
  "deployedLinkReferences": {}
}