{
  "_format": "hh-sol-artifact-1",
  "contractName": "MulticallFacet",
  "sourceName": "contracts/facets/MulticallFacet.sol",
  "abi": [
    {
      "inputs": [
        {
          "internalType": "uint256",
          "name": "a",
          "type": "uint256"
        },
        {
          "internalType": "uint256",
          "name": "b",
          "type": "uint256"
        }
      ],
      "name": "add",
      "outputs": [
        {
          "internalType": "uint256",
          "name": "",
          "type": "uint256"
        }
      ],
      "stateMutability": "pure",
      "type": "function"
    },
    {
      "inputs": [
        {
          "internalType": "uint256",
          "name": "a",
          "type": "uint256"
        },
        {
          "internalType": "uint256",
          "name": "b",
          "type": "uint256"
        }
      ],
      "name": "div",
      "outputs": [
        {
          "internalType": "uint256",
          "name": "",
          "type": "uint256"
        }
      ],
      "stateMutability": "pure",
      "type": "function"
    },
    {
      "inputs": [
        {
          "internalType": "uint256",
          "name": "a",
          "type": "uint256"
        },
        {
          "internalType": "uint256",
          "name": "b",
          "type": "uint256"
        }
      ],
      "name": "mod",
      "outputs": [
        {
          "internalType": "uint256",
          "name": "",
          "type": "uint256"
        }
      ],
      "stateMutability": "pure",
      "type": "function"
    },
    {
      "inputs": [
        {
          "internalType": "uint256",
          "name": "a",
          "type": "uint256"
        },
        {
          "internalType": "uint256",
          "name": "b",
          "type": "uint256"
        }
      ],
      "name": "mul",
      "outputs": [
        {
          "internalType": "uint256",
          "name": "",
          "type": "uint256"
        }
      ],
      "stateMutability": "pure",
      "type": "function"
    },
    {
      "inputs": [
        {
          "internalType": "bytes[]",
          "name": "data",
          "type": "bytes[]"
        }
      ],
      "name": "multicall",
      "outputs": [
        {
          "internalType": "bytes[]",
          "name": "result",
          "type": "bytes[]"
        }
      ],
      "stateMutability": "nonpayable",
      "type": "function"
    },
    {
      "inputs": [
        {
          "internalType": "bytes[]",
          "name": "data",
          "type": "bytes[]"
        },
        {
          "internalType": "uint256[]",
          "name": "indices",
          "type": "uint256[]"
        }
      ],
      "name": "multicallThen",
      "outputs": [
        {
          "internalType": "bytes[]",
          "name": "result",
          "type": "bytes[]"
        }
      ],
      "stateMutability": "nonpayable",
      "type": "function"
    },
    {
      "inputs": [
        {
          "internalType": "uint256",
          "name": "a",
          "type": "uint256"
        },
        {
          "internalType": "uint256",
          "name": "b",
          "type": "uint256"
        }
      ],
      "name": "sub",
      "outputs": [
        {
          "internalType": "uint256",
          "name": "",
          "type": "uint256"
        }
      ],
      "stateMutability": "pure",
      "type": "function"
    }
  ],
  "bytecode": "0x608060405234801561001057600080fd5b50610b23806100206000396000f3fe608060405234801561001057600080fd5b506004361061007d5760003560e01c8063b67d77c51161005b578063b67d77c5146100db578063c8a4ac9c146100ee578063f211297814610101578063f43f523a1461011457600080fd5b8063771602f714610082578063a391c15b146100a8578063ac9650d8146100bb575b600080fd5b6100956100903660046106c1565b610127565b6040519081526020015b60405180910390f35b6100956100b63660046106c1565b61013c565b6100ce6100c9366004610837565b61019d565b60405161009f91906108a4565b6100956100e93660046106c1565b610253565b6100956100fc3660046106c1565b6102af565b6100ce61010f36600461091e565b6102d3565b6100956101223660046106c1565b61053e565b600061013382846109ef565b90505b92915050565b6000816000036101935760405162461bcd60e51b815260206004820152601060248201527f4469766973696f6e206279207a65726f0000000000000000000000000000000060448201526064015b60405180910390fd5b6101338284610a1d565b6060815167ffffffffffffffff8111156101b9576101b96106e3565b6040519080825280602002602001820160405280156101ec57816020015b60608152602001906001900390816101d75790505b50905060005b825181101561024d5761021d83828151811061021057610210610a31565b602002602001015161059a565b82828151811061022f5761022f610a31565b6020026020010181905250808061024590610a47565b9150506101f2565b50919050565b6000828211156102a55760405162461bcd60e51b815260206004820152601460248201527f5375627472616374696f6e206f766572666c6f77000000000000000000000000604482015260640161018a565b6101338284610a60565b60008215806102bc575081155b156102c957506000610136565b6101338284610a77565b606081518351146103265760405162461bcd60e51b815260206004820181905260248201527f4461746120616e6420696e6469636573206c656e677468206d69736d61746368604482015260640161018a565b825167ffffffffffffffff811115610340576103406106e3565b60405190808252806020026020018201604052801561037357816020015b606081526020019060019003908161035e5790505b509050606060005b84518110156105365783818151811061039657610396610a31565b60200260200101516000146104d457600082518583815181106103bb576103bb610a31565b60200260200101516103cd91906109ef565b905060008583815181106103e3576103e3610a31565b602002602001015184516103f791906109ef565b87848151811061040957610409610a31565b60200260200101515161041c9190610a60565b9050600061045e88858151811061043557610435610a31565b6020026020010151600089878151811061045157610451610a31565b60200260200101516105ea565b856104838a878151811061047457610474610a31565b602002602001015186866105ea565b60405160200161049593929190610a96565b60405160208183030381529060405290506104af8161059a565b8685815181106104c1576104c1610a31565b6020026020010181905250505050610507565b6104e985828151811061021057610210610a31565b8382815181106104fb576104fb610a31565b60200260200101819052505b82818151811061051957610519610a31565b60200260200101519150808061052e90610a47565b91505061037b565b505092915050565b6000816000036105905760405162461bcd60e51b815260206004820152600f60248201527f4d6f64756c7573206279207a65726f0000000000000000000000000000000000604482015260640161018a565b6101338284610ad9565b606081805134156105aa57600080fd5b6040516000808360208601305af492503d81523d6000602083013e3d81016020016040528280156105dd578194506105e1565b3d82fd5b50505050919050565b606060008267ffffffffffffffff811115610607576106076106e3565b6040519080825280601f01601f191660200182016040528015610631576020820181803683370190505b50905060005b838110156106b8578561064a82876109ef565b8151811061065a5761065a610a31565b602001015160f81c60f81b82828151811061067757610677610a31565b60200101907effffffffffffffffffffffffffffffffffffffffffffffffffffffffffffff1916908160001a905350806106b081610a47565b915050610637565b50949350505050565b600080604083850312156106d457600080fd5b50508035926020909101359150565b634e487b7160e01b600052604160045260246000fd5b604051601f8201601f1916810167ffffffffffffffff81118282101715610722576107226106e3565b604052919050565b600067ffffffffffffffff821115610744576107446106e3565b5060051b60200190565b6000601f838184011261076057600080fd5b823560206107756107708361072a565b6106f9565b82815260059290921b8501810191818101908784111561079457600080fd5b8287015b8481101561082b57803567ffffffffffffffff808211156107b95760008081fd5b818a0191508a603f8301126107ce5760008081fd5b858201356040828211156107e4576107e46106e3565b6107f5828b01601f191689016106f9565b92508183528c8183860101111561080c5760008081fd5b8181850189850137506000908201870152845250918301918301610798565b50979650505050505050565b60006020828403121561084957600080fd5b813567ffffffffffffffff81111561086057600080fd5b61086c8482850161074e565b949350505050565b60005b8381101561088f578181015183820152602001610877565b8381111561089e576000848401525b50505050565b6000602080830181845280855180835260408601915060408160051b870101925083870160005b8281101561091157878503603f19018452815180518087526108f2818989018a8501610874565b601f01601f1916959095018601945092850192908501906001016108cb565b5092979650505050505050565b6000806040838503121561093157600080fd5b823567ffffffffffffffff8082111561094957600080fd5b6109558683870161074e565b935060209150818501358181111561096c57600080fd5b85019050601f8101861361097f57600080fd5b803561098d6107708261072a565b81815260059190911b820183019083810190888311156109ac57600080fd5b928401925b828410156109ca578335825292840192908401906109b1565b80955050505050509250929050565b634e487b7160e01b600052601160045260246000fd5b60008219821115610a0257610a026109d9565b500190565b634e487b7160e01b600052601260045260246000fd5b600082610a2c57610a2c610a07565b500490565b634e487b7160e01b600052603260045260246000fd5b600060018201610a5957610a596109d9565b5060010190565b600082821015610a7257610a726109d9565b500390565b6000816000190483118215151615610a9157610a916109d9565b500290565b60008451610aa8818460208901610874565b845190830190610abc818360208901610874565b8451910190610acf818360208801610874565b0195945050505050565b600082610ae857610ae8610a07565b50069056fea264697066735822122040ceb305f4aa730b70f52b703208eb835cb2e2e087a065d03472960da48165f464736f6c634300080f0033",
  "linkReferences": {},
  "deployedLinkReferences": {}
}