{
  "_format": "hh-sol-artifact-1",
  "contractName": "DiamondLoupeFacet",
  "sourceName": "contracts/facets/DiamondLoupeFacet.sol",
  "abi": [
    {
      "inputs": [
        {
          "internalType": "bytes4",
          "name": "_functionSelector",
          "type": "bytes4"
        }
      ],
      "name": "facetAddress",
      "outputs": [
        {
          "internalType": "address",
          "name": "facetAddress_",
          "type": "address"
        }
      ],
      "stateMutability": "view",
      "type": "function"
    },
    {
      "inputs": [],
      "name": "facetAddresses",
      "outputs": [
        {
          "internalType": "address[]",
          "name": "facetAddresses_",
          "type": "address[]"
        }
      ],
      "stateMutability": "view",
      "type": "function"
    },
    {
      "inputs": [
        {
          "internalType": "address",
          "name": "_facet",
          "type": "address"
        }
      ],
      "name": "facetFunctionSelectors",
      "outputs": [
        {
          "internalType": "bytes4[]",
          "name": "facetFunctionSelectors_",
          "type": "bytes4[]"
        }
      ],
      "stateMutability": "view",
      "type": "function"
    },
    {
      "inputs": [
        {
          "internalType": "address[]",
          "name": "_facets",
          "type": "address[]"
        }
      ],
      "name": "facetIdsFromAddresses",
      "outputs": [
        {
          "internalType": "bytes20[]",
          "name": "",
          "type": "bytes20[]"
        }
      ],
      "stateMutability": "view",
      "type": "function"
    },
    {
      "inputs": [
        {
          "internalType": "bytes20",
          "name": "_facetId",
          "type": "bytes20"
        },
        {
          "internalType": "bytes4",
          "name": "_functionSelector",
          "type": "bytes4"
        }
      ],
      "name": "facetResolveGlobalAddress",
      "outputs": [
        {
          "internalType": "address",
          "name": "facetAddress_",
          "type": "address"
        }
      ],
      "stateMutability": "view",
      "type": "function"
    },
    {
      "inputs": [
        {
          "internalType": "bytes20[]",
          "name": "_facetIds",
          "type": "bytes20[]"
        },
        {
          "internalType": "bytes4",
          "name": "_functionSelector",
          "type": "bytes4"
        }
      ],
      "name": "facetResolveGlobalAddress",
      "outputs": [
        {
          "internalType": "address",
          "name": "facetAddress_",
          "type": "address"
        }
      ],
      "stateMutability": "view",
      "type": "function"
    },
    {
      "inputs": [],
      "name": "facets",
      "outputs": [
        {
          "components": [
            {
              "internalType": "address",
              "name": "facetAddress",
              "type": "address"
            },
            {
              "internalType": "bytes4[]",
              "name": "functionSelectors",
              "type": "bytes4[]"
            }
          ],
          "internalType": "struct IDiamondLoupe.Facet[]",
          "name": "facets_",
          "type": "tuple[]"
        }
      ],
      "stateMutability": "view",
      "type": "function"
    },
    {
      "inputs": [
        {
          "internalType": "bytes4",
          "name": "_interfaceId",
          "type": "bytes4"
        }
      ],
      "name": "supportsInterface",
      "outputs": [
        {
          "internalType": "bool",
          "name": "",
          "type": "bool"
        }
      ],
      "stateMutability": "view",
      "type": "function"
    }
  ],
  "bytecode": "0x608060405234801561001057600080fd5b50610bd9806100206000396000f3fe608060405234801561001057600080fd5b50600436106100885760003560e01c8063adfca15e1161005b578063adfca15e14610143578063b9fa221314610163578063cdffacc614610183578063f935b459146101d557600080fd5b806301ffc9a71461008d5780633dabe98d146100ee57806352ef6b2c146101195780637a0ed6271461012e575b600080fd5b6100d961009b3660046107e6565b6001600160e01b03191660009081527fc8fcad8db84d3cc18b4c41d551ea0ee66dd599cde068d998e57d5e09332c131f602052604090205460ff1690565b60405190151581526020015b60405180910390f35b6101016100fc36600461081e565b6101e8565b6040516001600160a01b0390911681526020016100e5565b610121610234565b6040516100e59190610851565b6101366102b9565b6040516100e5919061089e565b610156610151366004610951565b6104ab565b6040516100e5919061097a565b610176610171366004610a08565b61059e565b6040516100e59190610a4a565b6101016101913660046107e6565b6001600160e01b03191660009081527fc8fcad8db84d3cc18b4c41d551ea0ee66dd599cde068d998e57d5e09332c131c60205260409020546001600160a01b031690565b6101016101e3366004610a91565b6105b1565b6000806101f58484610664565b60009081527ff2dfe058c28b8824749fa472a9e66d06e7b492a258310f09175b9bd43fdf11e560205260409020546001600160a01b0316949350505050565b606060007fc8fcad8db84d3cc18b4c41d551ea0ee66dd599cde068d998e57d5e09332c131c600281018054604080516020808402820181019092528281529394508301828280156102ae57602002820191906000526020600020905b81546001600160a01b03168152600190910190602001808311610290575b505050505091505090565b7fc8fcad8db84d3cc18b4c41d551ea0ee66dd599cde068d998e57d5e09332c131e546060907fc8fcad8db84d3cc18b4c41d551ea0ee66dd599cde068d998e57d5e09332c131c908067ffffffffffffffff81111561031957610319610ae5565b60405190808252806020026020018201604052801561035f57816020015b6040805180820190915260008152606060208201528152602001906001900390816103375790505b50925060005b818110156104a557600083600201828154811061038457610384610afb565b9060005260206000200160009054906101000a90046001600160a01b03169050808583815181106103b7576103b7610afb565b6020908102919091018101516001600160a01b03928316905290821660009081526001860182526040908190208054825181850281018501909352808352919290919083018282801561046b57602002820191906000526020600020906000905b82829054906101000a900460e01b7bffffffffffffffffffffffffffffffffffffffffffffffffffffffff1916815260200190600401906020826003010492830192600103820291508084116104185790505b505050505085838151811061048257610482610afb565b60200260200101516020018190525050808061049d90610b27565b915050610365565b50505090565b6001600160a01b03811660009081527fc8fcad8db84d3cc18b4c41d551ea0ee66dd599cde068d998e57d5e09332c131d602090815260409182902080548351818402810184019094528084526060937fc8fcad8db84d3cc18b4c41d551ea0ee66dd599cde068d998e57d5e09332c131c939092919083018282801561059157602002820191906000526020600020906000905b82829054906101000a900460e01b7bffffffffffffffffffffffffffffffffffffffffffffffffffffffff19168152602001906004019060208260030104928301926001038202915080841161053e5790505b5050505050915050919050565b60606105aa83836106b0565b9392505050565b6000805b61ffff81168411156106595760006105f786868461ffff168181106105dc576105dc610afb565b90506020020160208101906105f19190610b40565b85610664565b60008181527ff2dfe058c28b8824749fa472a9e66d06e7b492a258310f09175b9bd43fdf11e560208190526040909120546001600160a01b031694509091508315610644575050506105aa565b5050808061065190610b5b565b9150506105b5565b506000949350505050565b604080516bffffffffffffffffffffffff19841660208201526000603482018190526001600160e01b03198416603c83015291016040516020818303038152906040526105aa90610b7c565b60607ff2dfe058c28b8824749fa472a9e66d06e7b492a258310f09175b9bd43fdf11e58267ffffffffffffffff8111156106ec576106ec610ae5565b604051908082528060200260200182016040528015610715578160200160208202803683370190505b50915060005b61ffff81168411156107c15781600301600086868461ffff1681811061074357610743610afb565b90506020020160208101906107589190610951565b6001600160a01b03168152602081019190915260400160002054835160609190911b90849061ffff841690811061079157610791610afb565b6bffffffffffffffffffffffff1990921660209283029190910190910152806107b981610b5b565b91505061071b565b505092915050565b80356001600160e01b0319811681146107e157600080fd5b919050565b6000602082840312156107f857600080fd5b6105aa826107c9565b80356bffffffffffffffffffffffff19811681146107e157600080fd5b6000806040838503121561083157600080fd5b61083a83610801565b9150610848602084016107c9565b90509250929050565b6020808252825182820181905260009190848201906040850190845b818110156108925783516001600160a01b03168352928401929184019160010161086d565b50909695505050505050565b60006020808301818452808551808352604092508286019150828160051b8701018488016000805b8481101561094257898403603f19018652825180516001600160a01b03168552880151888501889052805188860181905290890190839060608701905b8083101561092d5783516001600160e01b0319168252928b019260019290920191908b0190610903565b50978a019795505050918701916001016108c6565b50919998505050505050505050565b60006020828403121561096357600080fd5b81356001600160a01b03811681146105aa57600080fd5b6020808252825182820181905260009190848201906040850190845b818110156108925783516001600160e01b03191683529284019291840191600101610996565b60008083601f8401126109ce57600080fd5b50813567ffffffffffffffff8111156109e657600080fd5b6020830191508360208260051b8501011115610a0157600080fd5b9250929050565b60008060208385031215610a1b57600080fd5b823567ffffffffffffffff811115610a3257600080fd5b610a3e858286016109bc565b90969095509350505050565b6020808252825182820181905260009190848201906040850190845b818110156108925783516bffffffffffffffffffffffff191683529284019291840191600101610a66565b600080600060408486031215610aa657600080fd5b833567ffffffffffffffff811115610abd57600080fd5b610ac9868287016109bc565b9094509250610adc9050602085016107c9565b90509250925092565b634e487b7160e01b600052604160045260246000fd5b634e487b7160e01b600052603260045260246000fd5b634e487b7160e01b600052601160045260246000fd5b600060018201610b3957610b39610b11565b5060010190565b600060208284031215610b5257600080fd5b6105aa82610801565b600061ffff808316818103610b7257610b72610b11565b6001019392505050565b80516020808301519190811015610b9d576000198160200360031b1b821691505b5091905056fea26469706673582212209cc12cbc308e06235d6286c6e431af42472fe8713164f164a579043982a849f164736f6c634300080f0033",
  "linkReferences": {},
  "deployedLinkReferences": {}
}